{
  "_format": "hh-sol-artifact-1",
  "contractName": "TokenExchange",
  "sourceName": "contracts/exchange.sol",
  "abi": [
    {
      "inputs": [],
      "stateMutability": "nonpayable",
      "type": "constructor"
    },
    {
      "anonymous": false,
      "inputs": [
        {
          "indexed": true,
          "internalType": "address",
          "name": "previousOwner",
          "type": "address"
        },
        {
          "indexed": true,
          "internalType": "address",
          "name": "newOwner",
          "type": "address"
        }
      ],
      "name": "OwnershipTransferred",
      "type": "event"
    },
    {
      "inputs": [
        {
          "internalType": "uint256",
          "name": "maxExchangeRate",
          "type": "uint256"
        },
        {
          "internalType": "uint256",
          "name": "minExchangeRate",
          "type": "uint256"
        }
      ],
      "name": "addLiquidity",
      "outputs": [],
      "stateMutability": "payable",
      "type": "function"
    },
    {
      "inputs": [
        {
          "internalType": "uint256",
          "name": "amountTokens",
          "type": "uint256"
        }
      ],
      "name": "createPool",
      "outputs": [],
      "stateMutability": "payable",
      "type": "function"
    },
    {
      "inputs": [],
      "name": "exchange_name",
      "outputs": [
        {
          "internalType": "string",
          "name": "",
          "type": "string"
        }
      ],
      "stateMutability": "view",
      "type": "function"
    },
    {
      "inputs": [],
      "name": "getSwapFee",
      "outputs": [
        {
          "internalType": "uint256",
          "name": "",
          "type": "uint256"
        },
        {
          "internalType": "uint256",
          "name": "",
          "type": "uint256"
        }
      ],
      "stateMutability": "view",
      "type": "function"
    },
    {
      "inputs": [],
      "name": "owner",
      "outputs": [
        {
          "internalType": "address",
          "name": "",
          "type": "address"
        }
      ],
      "stateMutability": "view",
      "type": "function"
    },
    {
      "inputs": [
        {
          "internalType": "uint256",
          "name": "maxExchangeRate",
          "type": "uint256"
        },
        {
          "internalType": "uint256",
          "name": "minExchangeRate",
          "type": "uint256"
        }
      ],
      "name": "removeAllLiquidity",
      "outputs": [],
      "stateMutability": "payable",
      "type": "function"
    },
    {
      "inputs": [
        {
          "internalType": "uint256",
          "name": "amountETH",
          "type": "uint256"
        },
        {
          "internalType": "uint256",
          "name": "maxExchangeRate",
          "type": "uint256"
        },
        {
          "internalType": "uint256",
          "name": "minExchangeRate",
          "type": "uint256"
        }
      ],
      "name": "removeLiquidity",
      "outputs": [],
      "stateMutability": "payable",
      "type": "function"
    },
    {
      "inputs": [],
      "name": "renounceOwnership",
      "outputs": [],
      "stateMutability": "nonpayable",
      "type": "function"
    },
    {
      "inputs": [
        {
          "internalType": "uint256",
          "name": "maxSlippageRate",
          "type": "uint256"
        }
      ],
      "name": "swapETHForTokens",
      "outputs": [],
      "stateMutability": "payable",
      "type": "function"
    },
    {
      "inputs": [
        {
          "internalType": "uint256",
          "name": "amountTokens",
          "type": "uint256"
        },
        {
          "internalType": "uint256",
          "name": "maxSlippageRate",
          "type": "uint256"
        }
      ],
      "name": "swapTokensForETH",
      "outputs": [],
      "stateMutability": "payable",
      "type": "function"
    },
    {
      "inputs": [],
      "name": "token",
      "outputs": [
        {
          "internalType": "contract Token",
          "name": "",
          "type": "address"
        }
      ],
      "stateMutability": "view",
      "type": "function"
    },
    {
      "inputs": [
        {
          "internalType": "address",
          "name": "newOwner",
          "type": "address"
        }
      ],
      "name": "transferOwnership",
      "outputs": [],
      "stateMutability": "nonpayable",
      "type": "function"
    }
  ],
  "bytecode": "0x608060405260405180602001604052806000815250600190816200002491906200048d565b50735fbdb2315678afecb367f032d93f642f64180aa3600260006101000a81548173ffffffffffffffffffffffffffffffffffffffff021916908373ffffffffffffffffffffffffffffffffffffffff160217905550600260009054906101000a900473ffffffffffffffffffffffffffffffffffffffff16600360006101000a81548173ffffffffffffffffffffffffffffffffffffffff021916908373ffffffffffffffffffffffffffffffffffffffff16021790555060006004556000600555600060065560006007556000600a556003600b556064600c55620186a0600e55670de0b6b3a7640000600f553480156200012057600080fd5b5062000141620001356200014760201b60201c565b6200014f60201b60201c565b62000574565b600033905090565b60008060009054906101000a900473ffffffffffffffffffffffffffffffffffffffff169050816000806101000a81548173ffffffffffffffffffffffffffffffffffffffff021916908373ffffffffffffffffffffffffffffffffffffffff1602179055508173ffffffffffffffffffffffffffffffffffffffff168173ffffffffffffffffffffffffffffffffffffffff167f8be0079c531659141344cd1fd0a4f28419497f9722a3daafe3b4186f6b6457e060405160405180910390a35050565b600081519050919050565b7f4e487b7100000000000000000000000000000000000000000000000000000000600052604160045260246000fd5b7f4e487b7100000000000000000000000000000000000000000000000000000000600052602260045260246000fd5b600060028204905060018216806200029557607f821691505b602082108103620002ab57620002aa6200024d565b5b50919050565b60008190508160005260206000209050919050565b60006020601f8301049050919050565b600082821b905092915050565b600060088302620003157fffffffffffffffffffffffffffffffffffffffffffffffffffffffffffffffff82620002d6565b620003218683620002d6565b95508019841693508086168417925050509392505050565b6000819050919050565b6000819050919050565b60006200036e62000368620003628462000339565b62000343565b62000339565b9050919050565b6000819050919050565b6200038a836200034d565b620003a2620003998262000375565b848454620002e3565b825550505050565b600090565b620003b9620003aa565b620003c68184846200037f565b505050565b5b81811015620003ee57620003e2600082620003af565b600181019050620003cc565b5050565b601f8211156200043d576200040781620002b1565b6200041284620002c6565b8101602085101562000422578190505b6200043a6200043185620002c6565b830182620003cb565b50505b505050565b600082821c905092915050565b6000620004626000198460080262000442565b1980831691505092915050565b60006200047d83836200044f565b9150826002028217905092915050565b620004988262000213565b67ffffffffffffffff811115620004b457620004b36200021e565b5b620004c082546200027c565b620004cd828285620003f2565b600060209050601f831160018114620005055760008415620004f0578287015190505b620004fc85826200046f565b8655506200056c565b601f1984166200051586620002b1565b60005b828110156200053f5784890151825560018201915060208501945060208101905062000518565b868310156200055f57848901516200055b601f8916826200044f565b8355505b6001600288020188555050505b505050505050565b61271880620005846000396000f3fe6080604052600436106100a75760003560e01c80639cd441da116100645780639cd441da1461015e578063a22280a61461017a578063d4cadf6814610196578063f2fde38b146101c2578063f694f7d1146101eb578063fc0c546a14610216576100a7565b80632eab2841146100ac57806358ad6de4146100c8578063715018a6146100e45780638259e6a0146100fb578063857620e1146101175780638da5cb5b14610133575b600080fd5b6100c660048036038101906100c19190611835565b610241565b005b6100e260048036038101906100dd9190611862565b610457565b005b3480156100f057600080fd5b506100f96104cb565b005b61011560048036038101906101109190611835565b6104df565b005b610131600480360381019061012c91906118a2565b61088f565b005b34801561013f57600080fd5b50610148610e1d565b6040516101559190611936565b60405180910390f35b61017860048036038101906101739190611862565b610e46565b005b610194600480360381019061018f9190611862565b6111a8565b005b3480156101a257600080fd5b506101ab6114a8565b6040516101b9929190611960565b60405180910390f35b3480156101ce57600080fd5b506101e960048036038101906101e491906119b5565b6114b9565b005b3480156101f757600080fd5b5061020061153c565b60405161020d9190611a72565b60405180910390f35b34801561022257600080fd5b5061022b6115ca565b6040516102389190611af3565b60405180910390f35b6000600c54600b54346102549190611b3d565b61025e9190611bae565b346102699190611bdf565b905060008160055461027b9190611c13565b9050600081600d5461028d9190611bae565b905060008160045461029f9190611bdf565b905084600f546004546102b29190611b3d565b600e546005546102c29190611b3d565b6102cc9190611bae565b1061030c576040517f08c379a000000000000000000000000000000000000000000000000000000000815260040161030390611c93565b60405180910390fd5b600160045461031b9190611bdf565b81111561035d576040517f08c379a000000000000000000000000000000000000000000000000000000000815260040161035490611d25565b60405180910390fd5b82600581905550816004819055506000600360009054906101000a900473ffffffffffffffffffffffffffffffffffffffff1673ffffffffffffffffffffffffffffffffffffffff1663a9059cbb33846040518363ffffffff1660e01b81526004016103ca929190611d45565b6020604051808303816000875af11580156103e9573d6000803e3d6000fd5b505050506040513d601f19601f8201168201806040525081019061040d9190611da6565b90508061044f576040517f08c379a000000000000000000000000000000000000000000000000000000000815260040161044690611e1f565b60405180910390fd5b505050505050565b6000600860003373ffffffffffffffffffffffffffffffffffffffff1673ffffffffffffffffffffffffffffffffffffffff1681526020019081526020016000205490506000600a54600554836104ae9190611b3d565b6104b89190611bae565b90506104c581858561088f565b50505050565b6104d36115f0565b6104dd600061166e565b565b6104e76115f0565b60006004541461052c576040517f08c379a000000000000000000000000000000000000000000000000000000000815260040161052390611e8b565b60405180910390fd5b600060055414610571576040517f08c379a000000000000000000000000000000000000000000000000000000000815260040161056890611ef7565b60405180910390fd5b600034116105b4576040517f08c379a00000000000000000000000000000000000000000000000000000000081526004016105ab90611f63565b60405180910390fd5b6000600360009054906101000a900473ffffffffffffffffffffffffffffffffffffffff1673ffffffffffffffffffffffffffffffffffffffff166370a08231336040518263ffffffff1660e01b81526004016106119190611936565b602060405180830381865afa15801561062e573d6000803e3d6000fd5b505050506040513d601f19601f820116820180604052508101906106529190611f98565b905080821115610697576040517f08c379a000000000000000000000000000000000000000000000000000000000815260040161068e90612037565b60405180910390fd5b600082116106da576040517f08c379a00000000000000000000000000000000000000000000000000000000081526004016106d1906120a3565b60405180910390fd5b600360009054906101000a900473ffffffffffffffffffffffffffffffffffffffff1673ffffffffffffffffffffffffffffffffffffffff166323b872dd3330856040518463ffffffff1660e01b8152600401610739939291906120c3565b6020604051808303816000875af1158015610758573d6000803e3d6000fd5b505050506040513d601f19601f8201168201806040525081019061077c9190611da6565b50600360009054906101000a900473ffffffffffffffffffffffffffffffffffffffff1673ffffffffffffffffffffffffffffffffffffffff166370a08231306040518263ffffffff1660e01b81526004016107d89190611936565b602060405180830381865afa1580156107f5573d6000803e3d6000fd5b505050506040513d601f19601f820116820180604052508101906108199190611f98565b600481905550346005819055506005546004546108369190611b3d565b600d81905550620186a0600a819055506064600860003373ffffffffffffffffffffffffffffffffffffffff1673ffffffffffffffffffffffffffffffffffffffff168152602001908152602001600020819055505050565b600083116108d2576040517f08c379a00000000000000000000000000000000000000000000000000000000081526004016108c99061216c565b60405180910390fd5b8260016005546108e29190611bdf565b1015610923576040517f08c379a000000000000000000000000000000000000000000000000000000000815260040161091a906121d8565b60405180910390fd5b6000600554600a54856109369190611b3d565b6109409190611bae565b905080600a60008282546109549190611bdf565b9250508190555080600860003373ffffffffffffffffffffffffffffffffffffffff1673ffffffffffffffffffffffffffffffffffffffff1681526020019081526020016000205410156109dd576040517f08c379a00000000000000000000000000000000000000000000000000000000081526004016109d490612290565b60405180910390fd5b60006109e885611732565b90506000600554600f54600e54600454610a029190611b3d565b610a0c9190611b3d565b610a169190611bae565b905083811015610a5b576040517f08c379a0000000000000000000000000000000000000000000000000000000008152600401610a52906122fc565b60405180910390fd5b84811115610a9e576040517f08c379a0000000000000000000000000000000000000000000000000000000008152600401610a9590612368565b60405180910390fd5b81600360009054906101000a900473ffffffffffffffffffffffffffffffffffffffff1673ffffffffffffffffffffffffffffffffffffffff166370a08231306040518263ffffffff1660e01b8152600401610afa9190611936565b602060405180830381865afa158015610b17573d6000803e3d6000fd5b505050506040513d601f19601f82011682018060405250810190610b3b9190611f98565b1015610b7c576040517f08c379a0000000000000000000000000000000000000000000000000000000008152600401610b73906123d4565b60405180910390fd5b600060055447610b8c9190611bdf565b90506000600454600360009054906101000a900473ffffffffffffffffffffffffffffffffffffffff1673ffffffffffffffffffffffffffffffffffffffff166370a08231306040518263ffffffff1660e01b8152600401610bee9190611936565b602060405180830381865afa158015610c0b573d6000803e3d6000fd5b505050506040513d601f19601f82011682018060405250810190610c2f9190611f98565b610c399190611bdf565b90506000600a548684610c4c9190611b3d565b610c569190611bae565b90506000600a548784610c699190611b3d565b610c739190611bae565b905086600860003373ffffffffffffffffffffffffffffffffffffffff1673ffffffffffffffffffffffffffffffffffffffff1681526020019081526020016000206000828254610cc49190611bdf565b925050819055508960056000828254610cdd9190611bdf565b925050819055508560046000828254610cf69190611bdf565b92505081905550600554600454610d0d9190611b3d565b600d81905550600360009054906101000a900473ffffffffffffffffffffffffffffffffffffffff1673ffffffffffffffffffffffffffffffffffffffff1663a9059cbb338389610d5e9190611c13565b6040518363ffffffff1660e01b8152600401610d7b929190611d45565b6020604051808303816000875af1158015610d9a573d6000803e3d6000fd5b505050506040513d601f19601f82011682018060405250810190610dbe9190611da6565b503373ffffffffffffffffffffffffffffffffffffffff166108fc838c610de59190611c13565b9081150290604051600060405180830381858888f19350505050158015610e10573d6000803e3d6000fd5b5050505050505050505050565b60008060009054906101000a900473ffffffffffffffffffffffffffffffffffffffff16905090565b60003411610e89576040517f08c379a0000000000000000000000000000000000000000000000000000000008152600401610e8090612440565b60405180910390fd5b6000610e9434611732565b905080600360009054906101000a900473ffffffffffffffffffffffffffffffffffffffff1673ffffffffffffffffffffffffffffffffffffffff166370a08231336040518263ffffffff1660e01b8152600401610ef29190611936565b602060405180830381865afa158015610f0f573d6000803e3d6000fd5b505050506040513d601f19601f82011682018060405250810190610f339190611f98565b1015610f74576040517f08c379a0000000000000000000000000000000000000000000000000000000008152600401610f6b906123d4565b60405180910390fd5b6000600554600f54600e54600454610f8c9190611b3d565b610f969190611b3d565b610fa09190611bae565b905082811015610fe5576040517f08c379a0000000000000000000000000000000000000000000000000000000008152600401610fdc906122fc565b60405180910390fd5b83811115611028576040517f08c379a000000000000000000000000000000000000000000000000000000000815260040161101f90612368565b60405180910390fd5b600360009054906101000a900473ffffffffffffffffffffffffffffffffffffffff1673ffffffffffffffffffffffffffffffffffffffff166323b872dd3330856040518463ffffffff1660e01b8152600401611087939291906120c3565b6020604051808303816000875af11580156110a6573d6000803e3d6000fd5b505050506040513d601f19601f820116820180604052508101906110ca9190611da6565b50600060055434600a546110de9190611b3d565b6110e89190611bae565b905080600860003373ffffffffffffffffffffffffffffffffffffffff1673ffffffffffffffffffffffffffffffffffffffff16815260200190815260200160002060008282546111399190611c13565b9250508190555080600a60008282546111529190611c13565b92505081905550346005600082825461116b9190611c13565b9250508190555082600460008282546111849190611c13565b9250508190555060055460045461119b9190611b3d565b600d819055505050505050565b6000600360009054906101000a900473ffffffffffffffffffffffffffffffffffffffff1673ffffffffffffffffffffffffffffffffffffffff166370a08231336040518263ffffffff1660e01b81526004016112059190611936565b602060405180830381865afa158015611222573d6000803e3d6000fd5b505050506040513d601f19601f820116820180604052508101906112469190611f98565b90508083111561128b576040517f08c379a0000000000000000000000000000000000000000000000000000000008152600401611282906124d2565b60405180910390fd5b6000600c54600b548561129e9190611b3d565b6112a89190611bae565b846112b39190611bdf565b90506000816004546112c59190611c13565b9050600081600d546112d79190611bae565b90506000816005546112e99190611bdf565b905085600554600f54600e546004546113029190611b3d565b61130c9190611b3d565b6113169190611bae565b10611356576040517f08c379a000000000000000000000000000000000000000000000000000000000815260040161134d90611c93565b60405180910390fd5b60016005546113659190611bdf565b8111156113a7576040517f08c379a000000000000000000000000000000000000000000000000000000000815260040161139e90612564565b60405180910390fd5b81600581905550826004819055503373ffffffffffffffffffffffffffffffffffffffff166108fc829081150290604051600060405180830381858888f193505050501580156113fb573d6000803e3d6000fd5b50600360009054906101000a900473ffffffffffffffffffffffffffffffffffffffff1673ffffffffffffffffffffffffffffffffffffffff166323b872dd33308a6040518463ffffffff1660e01b815260040161145b939291906120c3565b6020604051808303816000875af115801561147a573d6000803e3d6000fd5b505050506040513d601f19601f8201168201806040525081019061149e9190611da6565b5050505050505050565b600080600b54600c54915091509091565b6114c16115f0565b600073ffffffffffffffffffffffffffffffffffffffff168173ffffffffffffffffffffffffffffffffffffffff1603611530576040517f08c379a0000000000000000000000000000000000000000000000000000000008152600401611527906125f6565b60405180910390fd5b6115398161166e565b50565b6001805461154990612645565b80601f016020809104026020016040519081016040528092919081815260200182805461157590612645565b80156115c25780601f10611597576101008083540402835291602001916115c2565b820191906000526020600020905b8154815290600101906020018083116115a557829003601f168201915b505050505081565b600360009054906101000a900473ffffffffffffffffffffffffffffffffffffffff1681565b6115f86117f2565b73ffffffffffffffffffffffffffffffffffffffff16611616610e1d565b73ffffffffffffffffffffffffffffffffffffffff161461166c576040517f08c379a0000000000000000000000000000000000000000000000000000000008152600401611663906126c2565b60405180910390fd5b565b60008060009054906101000a900473ffffffffffffffffffffffffffffffffffffffff169050816000806101000a81548173ffffffffffffffffffffffffffffffffffffffff021916908373ffffffffffffffffffffffffffffffffffffffff1602179055508173ffffffffffffffffffffffffffffffffffffffff168173ffffffffffffffffffffffffffffffffffffffff167f8be0079c531659141344cd1fd0a4f28419497f9722a3daafe3b4186f6b6457e060405160405180910390a35050565b6000804783600360009054906101000a900473ffffffffffffffffffffffffffffffffffffffff1673ffffffffffffffffffffffffffffffffffffffff166370a08231306040518263ffffffff1660e01b81526004016117929190611936565b602060405180830381865afa1580156117af573d6000803e3d6000fd5b505050506040513d601f19601f820116820180604052508101906117d39190611f98565b6117dd9190611b3d565b6117e79190611bae565b905080915050919050565b600033905090565b600080fd5b6000819050919050565b611812816117ff565b811461181d57600080fd5b50565b60008135905061182f81611809565b92915050565b60006020828403121561184b5761184a6117fa565b5b600061185984828501611820565b91505092915050565b60008060408385031215611879576118786117fa565b5b600061188785828601611820565b925050602061189885828601611820565b9150509250929050565b6000806000606084860312156118bb576118ba6117fa565b5b60006118c986828701611820565b93505060206118da86828701611820565b92505060406118eb86828701611820565b9150509250925092565b600073ffffffffffffffffffffffffffffffffffffffff82169050919050565b6000611920826118f5565b9050919050565b61193081611915565b82525050565b600060208201905061194b6000830184611927565b92915050565b61195a816117ff565b82525050565b60006040820190506119756000830185611951565b6119826020830184611951565b9392505050565b61199281611915565b811461199d57600080fd5b50565b6000813590506119af81611989565b92915050565b6000602082840312156119cb576119ca6117fa565b5b60006119d9848285016119a0565b91505092915050565b600081519050919050565b600082825260208201905092915050565b60005b83811015611a1c578082015181840152602081019050611a01565b60008484015250505050565b6000601f19601f8301169050919050565b6000611a44826119e2565b611a4e81856119ed565b9350611a5e8185602086016119fe565b611a6781611a28565b840191505092915050565b60006020820190508181036000830152611a8c8184611a39565b905092915050565b6000819050919050565b6000611ab9611ab4611aaf846118f5565b611a94565b6118f5565b9050919050565b6000611acb82611a9e565b9050919050565b6000611add82611ac0565b9050919050565b611aed81611ad2565b82525050565b6000602082019050611b086000830184611ae4565b92915050565b7f4e487b7100000000000000000000000000000000000000000000000000000000600052601160045260246000fd5b6000611b48826117ff565b9150611b53836117ff565b9250828202611b61816117ff565b91508282048414831517611b7857611b77611b0e565b5b5092915050565b7f4e487b7100000000000000000000000000000000000000000000000000000000600052601260045260246000fd5b6000611bb9826117ff565b9150611bc4836117ff565b925082611bd457611bd3611b7f565b5b828204905092915050565b6000611bea826117ff565b9150611bf5836117ff565b9250828203905081811115611c0d57611c0c611b0e565b5b92915050565b6000611c1e826117ff565b9150611c29836117ff565b9250828201905080821115611c4157611c40611b0e565b5b92915050565b7f4661696c65642064756520746f20736c69707061676500000000000000000000600082015250565b6000611c7d6016836119ed565b9150611c8882611c47565b602082019050919050565b60006020820190508181036000830152611cac81611c70565b9050919050565b7f53776170206661696c65642064756520746f2070726576656e74696f6e206f6660008201527f20546f6b656e20737570706c792064697070696e672062656c6f772031000000602082015250565b6000611d0f603d836119ed565b9150611d1a82611cb3565b604082019050919050565b60006020820190508181036000830152611d3e81611d02565b9050919050565b6000604082019050611d5a6000830185611927565b611d676020830184611951565b9392505050565b60008115159050919050565b611d8381611d6e565b8114611d8e57600080fd5b50565b600081519050611da081611d7a565b92915050565b600060208284031215611dbc57611dbb6117fa565b5b6000611dca84828501611d91565b91505092915050565b7f546f6b656e207472616e73666572206661696c65640000000000000000000000600082015250565b6000611e096015836119ed565b9150611e1482611dd3565b602082019050919050565b60006020820190508181036000830152611e3881611dfc565b9050919050565b7f546f6b656e20726573657276657320776173206e6f7420300000000000000000600082015250565b6000611e756018836119ed565b9150611e8082611e3f565b602082019050919050565b60006020820190508181036000830152611ea481611e68565b9050919050565b7f45544820726573657276657320776173206e6f7420302e000000000000000000600082015250565b6000611ee16017836119ed565b9150611eec82611eab565b602082019050919050565b60006020820190508181036000830152611f1081611ed4565b9050919050565b7f4e6565642065746820746f2063726561746520706f6f6c2e0000000000000000600082015250565b6000611f4d6018836119ed565b9150611f5882611f17565b602082019050919050565b60006020820190508181036000830152611f7c81611f40565b9050919050565b600081519050611f9281611809565b92915050565b600060208284031215611fae57611fad6117fa565b5b6000611fbc84828501611f83565b91505092915050565b7f4e6f74206861766520656e6f75676820746f6b656e7320746f2063726561746560008201527f2074686520706f6f6c0000000000000000000000000000000000000000000000602082015250565b60006120216029836119ed565b915061202c82611fc5565b604082019050919050565b6000602082019050818103600083015261205081612014565b9050919050565b7f4e65656420746f6b656e7320746f2063726561746520706f6f6c2e0000000000600082015250565b600061208d601b836119ed565b915061209882612057565b602082019050919050565b600060208201905081810360008301526120bc81612080565b9050919050565b60006060820190506120d86000830186611927565b6120e56020830185611927565b6120f26040830184611951565b949350505050565b7f4d757374207370656369667920616e20616d6f756e74206f662045544820746f60008201527f2072656d6f766500000000000000000000000000000000000000000000000000602082015250565b60006121566027836119ed565b9150612161826120fa565b604082019050919050565b6000602082019050818103600083015261218581612149565b9050919050565b7f496e73756666696369656e742045544820726573657276657300000000000000600082015250565b60006121c26019836119ed565b91506121cd8261218c565b602082019050919050565b600060208201905081810360008301526121f1816121b5565b9050919050565b7f4c5020646f6573206e6f74206861766520656e6f75676820736861726573207460008201527f6f2072656d6f76652074686520696e70757474656420616d6f756e74206f662060208201527f6c69717569646974792e00000000000000000000000000000000000000000000604082015250565b600061227a604a836119ed565b9150612285826121f8565b606082019050919050565b600060208201905081810360008301526122a98161226d565b9050919050565b7f45786368616e6765207261746520746f6f206c6f770000000000000000000000600082015250565b60006122e66015836119ed565b91506122f1826122b0565b602082019050919050565b60006020820190508181036000830152612315816122d9565b9050919050565b7f45786368616e6765207261746520746f6f206869676800000000000000000000600082015250565b60006123526016836119ed565b915061235d8261231c565b602082019050919050565b6000602082019050818103600083015261238181612345565b9050919050565b7f496e73756666696369656e7420746f6b656e7300000000000000000000000000600082015250565b60006123be6013836119ed565b91506123c982612388565b602082019050919050565b600060208201905081810360008301526123ed816123b1565b9050919050565b7f4d7573742073656e642045544800000000000000000000000000000000000000600082015250565b600061242a600d836119ed565b9150612435826123f4565b602082019050919050565b600060208201905081810360008301526124598161241d565b9050919050565b7f43616c6c657220646f6573206e6f74206861766520656e6f75676820746f6b6560008201527f6e7320746f206d616b6520737761700000000000000000000000000000000000602082015250565b60006124bc602f836119ed565b91506124c782612460565b604082019050919050565b600060208201905081810360008301526124eb816124af565b9050919050565b7f53776170206661696c65642064756520746f2070726576656e74696f6e206f6660008201527f2045746820737570706c792064697070696e672062656c6f7720310000000000602082015250565b600061254e603b836119ed565b9150612559826124f2565b604082019050919050565b6000602082019050818103600083015261257d81612541565b9050919050565b7f4f776e61626c653a206e6577206f776e657220697320746865207a65726f206160008201527f6464726573730000000000000000000000000000000000000000000000000000602082015250565b60006125e06026836119ed565b91506125eb82612584565b604082019050919050565b6000602082019050818103600083015261260f816125d3565b9050919050565b7f4e487b7100000000000000000000000000000000000000000000000000000000600052602260045260246000fd5b6000600282049050600182168061265d57607f821691505b6020821081036126705761266f612616565b5b50919050565b7f4f776e61626c653a2063616c6c6572206973206e6f7420746865206f776e6572600082015250565b60006126ac6020836119ed565b91506126b782612676565b602082019050919050565b600060208201905081810360008301526126db8161269f565b905091905056fea2646970667358221220b38f6b3680aad95556065b1cf9e9615b275c432eca77ce35bd8af1c9af6135fe64736f6c63430008110033",
  "linkReferences": {},
  "deployedLinkReferences": {}
}