{
  "_format": "hh-sol-artifact-1",
  "contractName": "TokenExchange",
  "sourceName": "contracts/exchange.sol",
  "abi": [
    {
      "inputs": [],
      "stateMutability": "nonpayable",
      "type": "constructor"
    },
    {
      "anonymous": false,
      "inputs": [
        {
          "indexed": true,
          "internalType": "address",
          "name": "previousOwner",
          "type": "address"
        },
        {
          "indexed": true,
          "internalType": "address",
          "name": "newOwner",
          "type": "address"
        }
      ],
      "name": "OwnershipTransferred",
      "type": "event"
    },
    {
      "inputs": [
        {
          "internalType": "uint256",
          "name": "maxExchangeRate",
          "type": "uint256"
        },
        {
          "internalType": "uint256",
          "name": "minExchangeRate",
          "type": "uint256"
        }
      ],
      "name": "addLiquidity",
      "outputs": [],
      "stateMutability": "payable",
      "type": "function"
    },
    {
      "inputs": [
        {
          "internalType": "uint256",
          "name": "amountTokens",
          "type": "uint256"
        }
      ],
      "name": "createPool",
      "outputs": [],
      "stateMutability": "payable",
      "type": "function"
    },
    {
      "inputs": [],
      "name": "exchange_name",
      "outputs": [
        {
          "internalType": "string",
          "name": "",
          "type": "string"
        }
      ],
      "stateMutability": "view",
      "type": "function"
    },
    {
      "inputs": [],
      "name": "getReserves",
      "outputs": [
        {
          "internalType": "uint256",
          "name": "",
          "type": "uint256"
        },
        {
          "internalType": "uint256",
          "name": "",
          "type": "uint256"
        }
      ],
      "stateMutability": "view",
      "type": "function"
    },
    {
      "inputs": [],
      "name": "getSwapFee",
      "outputs": [
        {
          "internalType": "uint256",
          "name": "",
          "type": "uint256"
        },
        {
          "internalType": "uint256",
          "name": "",
          "type": "uint256"
        }
      ],
      "stateMutability": "view",
      "type": "function"
    },
    {
      "inputs": [],
      "name": "owner",
      "outputs": [
        {
          "internalType": "address",
          "name": "",
          "type": "address"
        }
      ],
      "stateMutability": "view",
      "type": "function"
    },
    {
      "inputs": [
        {
          "internalType": "uint256",
          "name": "maxExchangeRate",
          "type": "uint256"
        },
        {
          "internalType": "uint256",
          "name": "minExchangeRate",
          "type": "uint256"
        }
      ],
      "name": "removeAllLiquidity",
      "outputs": [],
      "stateMutability": "payable",
      "type": "function"
    },
    {
      "inputs": [
        {
          "internalType": "uint256",
          "name": "amountETH",
          "type": "uint256"
        },
        {
          "internalType": "uint256",
          "name": "maxExchangeRate",
          "type": "uint256"
        },
        {
          "internalType": "uint256",
          "name": "minExchangeRate",
          "type": "uint256"
        }
      ],
      "name": "removeLiquidity",
      "outputs": [],
      "stateMutability": "payable",
      "type": "function"
    },
    {
      "inputs": [],
      "name": "renounceOwnership",
      "outputs": [],
      "stateMutability": "nonpayable",
      "type": "function"
    },
    {
      "inputs": [
        {
          "internalType": "uint256",
          "name": "maxSlippageRate",
          "type": "uint256"
        }
      ],
      "name": "swapETHForTokens",
      "outputs": [],
      "stateMutability": "payable",
      "type": "function"
    },
    {
      "inputs": [
        {
          "internalType": "uint256",
          "name": "amountTokens",
          "type": "uint256"
        },
        {
          "internalType": "uint256",
          "name": "maxSlippageRate",
          "type": "uint256"
        }
      ],
      "name": "swapTokensForETH",
      "outputs": [],
      "stateMutability": "payable",
      "type": "function"
    },
    {
      "inputs": [],
      "name": "token",
      "outputs": [
        {
          "internalType": "contract Token",
          "name": "",
          "type": "address"
        }
      ],
      "stateMutability": "view",
      "type": "function"
    },
    {
      "inputs": [
        {
          "internalType": "address",
          "name": "newOwner",
          "type": "address"
        }
      ],
      "name": "transferOwnership",
      "outputs": [],
      "stateMutability": "nonpayable",
      "type": "function"
    }
  ],
  "bytecode": "0x60806040526040518060400160405280600981526020017f416e6e657a537761700000000000000000000000000000000000000000000000815250600190816200004a9190620004b3565b50735fbdb2315678afecb367f032d93f642f64180aa3600260006101000a81548173ffffffffffffffffffffffffffffffffffffffff021916908373ffffffffffffffffffffffffffffffffffffffff160217905550600260009054906101000a900473ffffffffffffffffffffffffffffffffffffffff16600360006101000a81548173ffffffffffffffffffffffffffffffffffffffff021916908373ffffffffffffffffffffffffffffffffffffffff16021790555060006004556000600555600060065560006007556000600a556003600b556064600c55620186a0600e55670de0b6b3a7640000600f553480156200014657600080fd5b50620001676200015b6200016d60201b60201c565b6200017560201b60201c565b6200059a565b600033905090565b60008060009054906101000a900473ffffffffffffffffffffffffffffffffffffffff169050816000806101000a81548173ffffffffffffffffffffffffffffffffffffffff021916908373ffffffffffffffffffffffffffffffffffffffff1602179055508173ffffffffffffffffffffffffffffffffffffffff168173ffffffffffffffffffffffffffffffffffffffff167f8be0079c531659141344cd1fd0a4f28419497f9722a3daafe3b4186f6b6457e060405160405180910390a35050565b600081519050919050565b7f4e487b7100000000000000000000000000000000000000000000000000000000600052604160045260246000fd5b7f4e487b7100000000000000000000000000000000000000000000000000000000600052602260045260246000fd5b60006002820490506001821680620002bb57607f821691505b602082108103620002d157620002d062000273565b5b50919050565b60008190508160005260206000209050919050565b60006020601f8301049050919050565b600082821b905092915050565b6000600883026200033b7fffffffffffffffffffffffffffffffffffffffffffffffffffffffffffffffff82620002fc565b620003478683620002fc565b95508019841693508086168417925050509392505050565b6000819050919050565b6000819050919050565b6000620003946200038e62000388846200035f565b62000369565b6200035f565b9050919050565b6000819050919050565b620003b08362000373565b620003c8620003bf826200039b565b84845462000309565b825550505050565b600090565b620003df620003d0565b620003ec818484620003a5565b505050565b5b81811015620004145762000408600082620003d5565b600181019050620003f2565b5050565b601f82111562000463576200042d81620002d7565b6200043884620002ec565b8101602085101562000448578190505b620004606200045785620002ec565b830182620003f1565b50505b505050565b600082821c905092915050565b6000620004886000198460080262000468565b1980831691505092915050565b6000620004a3838362000475565b9150826002028217905092915050565b620004be8262000239565b67ffffffffffffffff811115620004da57620004d962000244565b5b620004e68254620002a2565b620004f382828562000418565b600060209050601f8311600181146200052b576000841562000516578287015190505b62000522858262000495565b86555062000592565b601f1984166200053b86620002d7565b60005b8281101562000565578489015182556001820191506020850194506020810190506200053e565b8683101562000585578489015162000581601f89168262000475565b8355505b6001600288020188555050505b505050505050565b61287180620005aa6000396000f3fe6080604052600436106100c25760003560e01c80638da5cb5b1161007f578063d4cadf6811610059578063d4cadf68146101dd578063f2fde38b14610209578063f694f7d114610232578063fc0c546a1461025d576100c2565b80638da5cb5b1461017a5780639cd441da146101a5578063a22280a6146101c1576100c2565b80630902f1ac146100c75780632eab2841146100f357806358ad6de41461010f578063715018a61461012b5780638259e6a014610142578063857620e11461015e575b600080fd5b3480156100d357600080fd5b506100dc610288565b6040516100ea92919061194c565b60405180910390f35b61010d600480360381019061010891906119a6565b610299565b005b610129600480360381019061012491906119d3565b6104c2565b005b34801561013757600080fd5b50610140610536565b005b61015c600480360381019061015791906119a6565b61054a565b005b61017860048036038101906101739190611a13565b6108fa565b005b34801561018657600080fd5b5061018f610f0a565b60405161019c9190611aa7565b60405180910390f35b6101bf60048036038101906101ba91906119d3565b610f33565b005b6101db60048036038101906101d691906119d3565b611295565b005b3480156101e957600080fd5b506101f26115e6565b60405161020092919061194c565b60405180910390f35b34801561021557600080fd5b50610230600480360381019061022b9190611aee565b6115f7565b005b34801561023e57600080fd5b5061024761167a565b6040516102549190611bab565b60405180910390f35b34801561026957600080fd5b50610272611708565b60405161027f9190611c2c565b60405180910390f35b600080600554600454915091509091565b600034116102dc576040517f08c379a00000000000000000000000000000000000000000000000000000000081526004016102d390611c93565b60405180910390fd5b6000600c54600b54346102ef9190611ce2565b6102f99190611d53565b9050600081346103099190611d84565b9050600081600d5461031b9190611d53565b6004546103289190611d84565b9050600081600f54600e548561033e9190611ce2565b6103489190611ce2565b6103529190611d53565b905084811115610397576040517f08c379a000000000000000000000000000000000000000000000000000000000815260040161038e90611e04565b60405180910390fd5b6001826004546103a79190611d84565b10156103e8576040517f08c379a00000000000000000000000000000000000000000000000000000000081526004016103df90611e96565b60405180910390fd5b81600460008282546103fa9190611d84565b9250508190555082600560008282546104139190611eb6565b92505081905550600360009054906101000a900473ffffffffffffffffffffffffffffffffffffffff1673ffffffffffffffffffffffffffffffffffffffff1663a9059cbb33846040518363ffffffff1660e01b8152600401610477929190611eea565b6020604051808303816000875af1158015610496573d6000803e3d6000fd5b505050506040513d601f19601f820116820180604052508101906104ba9190611f4b565b505050505050565b6000600860003373ffffffffffffffffffffffffffffffffffffffff1673ffffffffffffffffffffffffffffffffffffffff1681526020019081526020016000205490506000600a54600554836105199190611ce2565b6105239190611d53565b90506105308185856108fa565b50505050565b61053e61172e565b61054860006117ac565b565b61055261172e565b600060045414610597576040517f08c379a000000000000000000000000000000000000000000000000000000000815260040161058e90611fc4565b60405180910390fd5b6000600554146105dc576040517f08c379a00000000000000000000000000000000000000000000000000000000081526004016105d390612030565b60405180910390fd5b6000341161061f576040517f08c379a00000000000000000000000000000000000000000000000000000000081526004016106169061209c565b60405180910390fd5b6000600360009054906101000a900473ffffffffffffffffffffffffffffffffffffffff1673ffffffffffffffffffffffffffffffffffffffff166370a08231336040518263ffffffff1660e01b815260040161067c9190611aa7565b602060405180830381865afa158015610699573d6000803e3d6000fd5b505050506040513d601f19601f820116820180604052508101906106bd91906120d1565b905080821115610702576040517f08c379a00000000000000000000000000000000000000000000000000000000081526004016106f990612170565b60405180910390fd5b60008211610745576040517f08c379a000000000000000000000000000000000000000000000000000000000815260040161073c906121dc565b60405180910390fd5b600360009054906101000a900473ffffffffffffffffffffffffffffffffffffffff1673ffffffffffffffffffffffffffffffffffffffff166323b872dd3330856040518463ffffffff1660e01b81526004016107a4939291906121fc565b6020604051808303816000875af11580156107c3573d6000803e3d6000fd5b505050506040513d601f19601f820116820180604052508101906107e79190611f4b565b50600360009054906101000a900473ffffffffffffffffffffffffffffffffffffffff1673ffffffffffffffffffffffffffffffffffffffff166370a08231306040518263ffffffff1660e01b81526004016108439190611aa7565b602060405180830381865afa158015610860573d6000803e3d6000fd5b505050506040513d601f19601f8201168201806040525081019061088491906120d1565b600481905550346005819055506005546004546108a19190611ce2565b600d81905550620186a0600a819055506064600860003373ffffffffffffffffffffffffffffffffffffffff1673ffffffffffffffffffffffffffffffffffffffff168152602001908152602001600020819055505050565b6000831161093d576040517f08c379a0000000000000000000000000000000000000000000000000000000008152600401610934906122a5565b60405180910390fd5b6000600860003373ffffffffffffffffffffffffffffffffffffffff1673ffffffffffffffffffffffffffffffffffffffff16815260200190815260200160002054116109bf576040517f08c379a00000000000000000000000000000000000000000000000000000000081526004016109b690612311565b60405180910390fd5b8260016005546109cf9190611d84565b1015610a10576040517f08c379a0000000000000000000000000000000000000000000000000000000008152600401610a079061237d565b60405180910390fd5b600060055484600a54610a239190611ce2565b610a2d9190611d53565b9050600860003373ffffffffffffffffffffffffffffffffffffffff1673ffffffffffffffffffffffffffffffffffffffff16815260200190815260200160002054811115610ab1576040517f08c379a0000000000000000000000000000000000000000000000000000000008152600401610aa8906123e9565b60405180910390fd5b6000610abc34611870565b90506000600554600f54600e54600454610ad69190611ce2565b610ae09190611ce2565b610aea9190611d53565b905083811015610b2f576040517f08c379a0000000000000000000000000000000000000000000000000000000008152600401610b2690612455565b60405180910390fd5b84811115610b72576040517f08c379a0000000000000000000000000000000000000000000000000000000008152600401610b69906124c1565b60405180910390fd5b81600360009054906101000a900473ffffffffffffffffffffffffffffffffffffffff1673ffffffffffffffffffffffffffffffffffffffff166370a08231306040518263ffffffff1660e01b8152600401610bce9190611aa7565b602060405180830381865afa158015610beb573d6000803e3d6000fd5b505050506040513d601f19601f82011682018060405250810190610c0f91906120d1565b1015610c50576040517f08c379a0000000000000000000000000000000000000000000000000000000008152600401610c479061252d565b60405180910390fd5b600060055447610c609190611d84565b90506000600454600360009054906101000a900473ffffffffffffffffffffffffffffffffffffffff1673ffffffffffffffffffffffffffffffffffffffff166370a08231306040518263ffffffff1660e01b8152600401610cc29190611aa7565b602060405180830381865afa158015610cdf573d6000803e3d6000fd5b505050506040513d601f19601f82011682018060405250810190610d0391906120d1565b610d0d9190611d84565b90506000600a548684610d209190611ce2565b610d2a9190611d53565b90506000600a548784610d3d9190611ce2565b610d479190611d53565b905086600860003373ffffffffffffffffffffffffffffffffffffffff1673ffffffffffffffffffffffffffffffffffffffff1681526020019081526020016000206000828254610d989190611d84565b9250508190555086600a6000828254610db19190611d84565b925050819055508960056000828254610dca9190611d84565b925050819055508560046000828254610de39190611d84565b92505081905550600554600454610dfa9190611ce2565b600d81905550600360009054906101000a900473ffffffffffffffffffffffffffffffffffffffff1673ffffffffffffffffffffffffffffffffffffffff1663a9059cbb338389610e4b9190611eb6565b6040518363ffffffff1660e01b8152600401610e68929190611eea565b6020604051808303816000875af1158015610e87573d6000803e3d6000fd5b505050506040513d601f19601f82011682018060405250810190610eab9190611f4b565b503373ffffffffffffffffffffffffffffffffffffffff166108fc838c610ed29190611eb6565b9081150290604051600060405180830381858888f19350505050158015610efd573d6000803e3d6000fd5b5050505050505050505050565b60008060009054906101000a900473ffffffffffffffffffffffffffffffffffffffff16905090565b60003411610f76576040517f08c379a0000000000000000000000000000000000000000000000000000000008152600401610f6d90612599565b60405180910390fd5b6000610f8134611870565b905080600360009054906101000a900473ffffffffffffffffffffffffffffffffffffffff1673ffffffffffffffffffffffffffffffffffffffff166370a08231336040518263ffffffff1660e01b8152600401610fdf9190611aa7565b602060405180830381865afa158015610ffc573d6000803e3d6000fd5b505050506040513d601f19601f8201168201806040525081019061102091906120d1565b1015611061576040517f08c379a00000000000000000000000000000000000000000000000000000000081526004016110589061252d565b60405180910390fd5b6000600554600f54600e546004546110799190611ce2565b6110839190611ce2565b61108d9190611d53565b9050828110156110d2576040517f08c379a00000000000000000000000000000000000000000000000000000000081526004016110c990612455565b60405180910390fd5b83811115611115576040517f08c379a000000000000000000000000000000000000000000000000000000000815260040161110c906124c1565b60405180910390fd5b600360009054906101000a900473ffffffffffffffffffffffffffffffffffffffff1673ffffffffffffffffffffffffffffffffffffffff166323b872dd3330856040518463ffffffff1660e01b8152600401611174939291906121fc565b6020604051808303816000875af1158015611193573d6000803e3d6000fd5b505050506040513d601f19601f820116820180604052508101906111b79190611f4b565b50600060055434600a546111cb9190611ce2565b6111d59190611d53565b905080600860003373ffffffffffffffffffffffffffffffffffffffff1673ffffffffffffffffffffffffffffffffffffffff16815260200190815260200160002060008282546112269190611eb6565b9250508190555080600a600082825461123f9190611eb6565b9250508190555034600560008282546112589190611eb6565b9250508190555082600460008282546112719190611eb6565b925050819055506005546004546112889190611ce2565b600d819055505050505050565b600082116112d8576040517f08c379a00000000000000000000000000000000000000000000000000000000081526004016112cf9061262b565b60405180910390fd5b81600360009054906101000a900473ffffffffffffffffffffffffffffffffffffffff1673ffffffffffffffffffffffffffffffffffffffff166370a08231336040518263ffffffff1660e01b81526004016113349190611aa7565b602060405180830381865afa158015611351573d6000803e3d6000fd5b505050506040513d601f19601f8201168201806040525081019061137591906120d1565b10156113b6576040517f08c379a00000000000000000000000000000000000000000000000000000000081526004016113ad9061252d565b60405180910390fd5b6000600c54600b54846113c99190611ce2565b6113d39190611d53565b9050600081846113e39190611d84565b9050600081600d546113f59190611d53565b6005546114029190611d84565b9050600082600f54600e54846114189190611ce2565b6114229190611ce2565b61142c9190611d53565b905084811115611471576040517f08c379a000000000000000000000000000000000000000000000000000000000815260040161146890611e04565b60405180910390fd5b6001826005546114819190611d84565b10156114c2576040517f08c379a00000000000000000000000000000000000000000000000000000000081526004016114b9906126bd565b60405180910390fd5b82600460008282546114d49190611eb6565b9250508190555081600560008282546114ed9190611d84565b92505081905550600360009054906101000a900473ffffffffffffffffffffffffffffffffffffffff1673ffffffffffffffffffffffffffffffffffffffff166323b872dd3330896040518463ffffffff1660e01b8152600401611553939291906121fc565b6020604051808303816000875af1158015611572573d6000803e3d6000fd5b505050506040513d601f19601f820116820180604052508101906115969190611f4b565b503373ffffffffffffffffffffffffffffffffffffffff166108fc839081150290604051600060405180830381858888f193505050501580156115dd573d6000803e3d6000fd5b50505050505050565b600080600b54600c54915091509091565b6115ff61172e565b600073ffffffffffffffffffffffffffffffffffffffff168173ffffffffffffffffffffffffffffffffffffffff160361166e576040517f08c379a00000000000000000000000000000000000000000000000000000000081526004016116659061274f565b60405180910390fd5b611677816117ac565b50565b600180546116879061279e565b80601f01602080910402602001604051908101604052809291908181526020018280546116b39061279e565b80156117005780601f106116d557610100808354040283529160200191611700565b820191906000526020600020905b8154815290600101906020018083116116e357829003601f168201915b505050505081565b600360009054906101000a900473ffffffffffffffffffffffffffffffffffffffff1681565b61173661192b565b73ffffffffffffffffffffffffffffffffffffffff16611754610f0a565b73ffffffffffffffffffffffffffffffffffffffff16146117aa576040517f08c379a00000000000000000000000000000000000000000000000000000000081526004016117a19061281b565b60405180910390fd5b565b60008060009054906101000a900473ffffffffffffffffffffffffffffffffffffffff169050816000806101000a81548173ffffffffffffffffffffffffffffffffffffffff021916908373ffffffffffffffffffffffffffffffffffffffff1602179055508173ffffffffffffffffffffffffffffffffffffffff168173ffffffffffffffffffffffffffffffffffffffff167f8be0079c531659141344cd1fd0a4f28419497f9722a3daafe3b4186f6b6457e060405160405180910390a35050565b600047600360009054906101000a900473ffffffffffffffffffffffffffffffffffffffff1673ffffffffffffffffffffffffffffffffffffffff166370a08231306040518263ffffffff1660e01b81526004016118ce9190611aa7565b602060405180830381865afa1580156118eb573d6000803e3d6000fd5b505050506040513d601f19601f8201168201806040525081019061190f91906120d1565b8361191a9190611ce2565b6119249190611d53565b9050919050565b600033905090565b6000819050919050565b61194681611933565b82525050565b6000604082019050611961600083018561193d565b61196e602083018461193d565b9392505050565b600080fd5b61198381611933565b811461198e57600080fd5b50565b6000813590506119a08161197a565b92915050565b6000602082840312156119bc576119bb611975565b5b60006119ca84828501611991565b91505092915050565b600080604083850312156119ea576119e9611975565b5b60006119f885828601611991565b9250506020611a0985828601611991565b9150509250929050565b600080600060608486031215611a2c57611a2b611975565b5b6000611a3a86828701611991565b9350506020611a4b86828701611991565b9250506040611a5c86828701611991565b9150509250925092565b600073ffffffffffffffffffffffffffffffffffffffff82169050919050565b6000611a9182611a66565b9050919050565b611aa181611a86565b82525050565b6000602082019050611abc6000830184611a98565b92915050565b611acb81611a86565b8114611ad657600080fd5b50565b600081359050611ae881611ac2565b92915050565b600060208284031215611b0457611b03611975565b5b6000611b1284828501611ad9565b91505092915050565b600081519050919050565b600082825260208201905092915050565b60005b83811015611b55578082015181840152602081019050611b3a565b60008484015250505050565b6000601f19601f8301169050919050565b6000611b7d82611b1b565b611b878185611b26565b9350611b97818560208601611b37565b611ba081611b61565b840191505092915050565b60006020820190508181036000830152611bc58184611b72565b905092915050565b6000819050919050565b6000611bf2611bed611be884611a66565b611bcd565b611a66565b9050919050565b6000611c0482611bd7565b9050919050565b6000611c1682611bf9565b9050919050565b611c2681611c0b565b82525050565b6000602082019050611c416000830184611c1d565b92915050565b7f4d7573742073656e64206d6f7265207468616e20302045544800000000000000600082015250565b6000611c7d601983611b26565b9150611c8882611c47565b602082019050919050565b60006020820190508181036000830152611cac81611c70565b9050919050565b7f4e487b7100000000000000000000000000000000000000000000000000000000600052601160045260246000fd5b6000611ced82611933565b9150611cf883611933565b9250828202611d0681611933565b91508282048414831517611d1d57611d1c611cb3565b5b5092915050565b7f4e487b7100000000000000000000000000000000000000000000000000000000600052601260045260246000fd5b6000611d5e82611933565b9150611d6983611933565b925082611d7957611d78611d24565b5b828204905092915050565b6000611d8f82611933565b9150611d9a83611933565b9250828203905081811115611db257611db1611cb3565b5b92915050565b7f536c697070616765207261746520746f6f206869676800000000000000000000600082015250565b6000611dee601683611b26565b9150611df982611db8565b602082019050919050565b60006020820190508181036000830152611e1d81611de1565b9050919050565b7f4d757374206c65617665206174206c65617374203120746f6b656e20696e207060008201527f6f6f6c0000000000000000000000000000000000000000000000000000000000602082015250565b6000611e80602383611b26565b9150611e8b82611e24565b604082019050919050565b60006020820190508181036000830152611eaf81611e73565b9050919050565b6000611ec182611933565b9150611ecc83611933565b9250828201905080821115611ee457611ee3611cb3565b5b92915050565b6000604082019050611eff6000830185611a98565b611f0c602083018461193d565b9392505050565b60008115159050919050565b611f2881611f13565b8114611f3357600080fd5b50565b600081519050611f4581611f1f565b92915050565b600060208284031215611f6157611f60611975565b5b6000611f6f84828501611f36565b91505092915050565b7f546f6b656e20726573657276657320776173206e6f7420300000000000000000600082015250565b6000611fae601883611b26565b9150611fb982611f78565b602082019050919050565b60006020820190508181036000830152611fdd81611fa1565b9050919050565b7f45544820726573657276657320776173206e6f7420302e000000000000000000600082015250565b600061201a601783611b26565b915061202582611fe4565b602082019050919050565b600060208201905081810360008301526120498161200d565b9050919050565b7f4e6565642065746820746f2063726561746520706f6f6c2e0000000000000000600082015250565b6000612086601883611b26565b915061209182612050565b602082019050919050565b600060208201905081810360008301526120b581612079565b9050919050565b6000815190506120cb8161197a565b92915050565b6000602082840312156120e7576120e6611975565b5b60006120f5848285016120bc565b91505092915050565b7f4e6f74206861766520656e6f75676820746f6b656e7320746f2063726561746560008201527f2074686520706f6f6c0000000000000000000000000000000000000000000000602082015250565b600061215a602983611b26565b9150612165826120fe565b604082019050919050565b600060208201905081810360008301526121898161214d565b9050919050565b7f4e65656420746f6b656e7320746f2063726561746520706f6f6c2e0000000000600082015250565b60006121c6601b83611b26565b91506121d182612190565b602082019050919050565b600060208201905081810360008301526121f5816121b9565b9050919050565b60006060820190506122116000830186611a98565b61221e6020830185611a98565b61222b604083018461193d565b949350505050565b7f4d757374207370656369667920616e20616d6f756e74206f662045544820746f60008201527f2072656d6f766500000000000000000000000000000000000000000000000000602082015250565b600061228f602783611b26565b915061229a82612233565b604082019050919050565b600060208201905081810360008301526122be81612282565b9050919050565b7f55736572206973206e6f742061206c69717569646974792070726f7669646572600082015250565b60006122fb602083611b26565b9150612306826122c5565b602082019050919050565b6000602082019050818103600083015261232a816122ee565b9050919050565b7f496e73756666696369656e742045544820726573657276657300000000000000600082015250565b6000612367601983611b26565b915061237282612331565b602082019050919050565b600060208201905081810360008301526123968161235a565b9050919050565b7f4e6f7420656e6f756768206c6971756964697479206f776e6564000000000000600082015250565b60006123d3601a83611b26565b91506123de8261239d565b602082019050919050565b60006020820190508181036000830152612402816123c6565b9050919050565b7f45786368616e6765207261746520746f6f206c6f770000000000000000000000600082015250565b600061243f601583611b26565b915061244a82612409565b602082019050919050565b6000602082019050818103600083015261246e81612432565b9050919050565b7f45786368616e6765207261746520746f6f206869676800000000000000000000600082015250565b60006124ab601683611b26565b91506124b682612475565b602082019050919050565b600060208201905081810360008301526124da8161249e565b9050919050565b7f496e73756666696369656e7420746f6b656e7300000000000000000000000000600082015250565b6000612517601383611b26565b9150612522826124e1565b602082019050919050565b600060208201905081810360008301526125468161250a565b9050919050565b7f4d7573742073656e642045544800000000000000000000000000000000000000600082015250565b6000612583600d83611b26565b915061258e8261254d565b602082019050919050565b600060208201905081810360008301526125b281612576565b9050919050565b7f4d757374207370656369667920616e20616d6f756e74206f6620746f6b656e7360008201527f20746f2073776170000000000000000000000000000000000000000000000000602082015250565b6000612615602883611b26565b9150612620826125b9565b604082019050919050565b6000602082019050818103600083015261264481612608565b9050919050565b7f4d757374206c65617665206174206c6561737420312045544820696e20706f6f60008201527f6c00000000000000000000000000000000000000000000000000000000000000602082015250565b60006126a7602183611b26565b91506126b28261264b565b604082019050919050565b600060208201905081810360008301526126d68161269a565b9050919050565b7f4f776e61626c653a206e6577206f776e657220697320746865207a65726f206160008201527f6464726573730000000000000000000000000000000000000000000000000000602082015250565b6000612739602683611b26565b9150612744826126dd565b604082019050919050565b600060208201905081810360008301526127688161272c565b9050919050565b7f4e487b7100000000000000000000000000000000000000000000000000000000600052602260045260246000fd5b600060028204905060018216806127b657607f821691505b6020821081036127c9576127c861276f565b5b50919050565b7f4f776e61626c653a2063616c6c6572206973206e6f7420746865206f776e6572600082015250565b6000612805602083611b26565b9150612810826127cf565b602082019050919050565b60006020820190508181036000830152612834816127f8565b905091905056fea26469706673582212208352c7143a9ecb6066f3711498a55f56133c0c96c503473322920cae45eb691264736f6c63430008110033",
  "linkReferences": {},
  "deployedLinkReferences": {}
}