{
  "_format": "hh-sol-artifact-1",
  "contractName": "TokenExchange",
  "sourceName": "contracts/exchange.sol",
  "abi": [
    {
      "inputs": [],
      "stateMutability": "nonpayable",
      "type": "constructor"
    },
    {
      "anonymous": false,
      "inputs": [
        {
          "indexed": true,
          "internalType": "address",
          "name": "previousOwner",
          "type": "address"
        },
        {
          "indexed": true,
          "internalType": "address",
          "name": "newOwner",
          "type": "address"
        }
      ],
      "name": "OwnershipTransferred",
      "type": "event"
    },
    {
      "inputs": [
        {
          "internalType": "uint256",
          "name": "maxExchangeRate",
          "type": "uint256"
        },
        {
          "internalType": "uint256",
          "name": "minExchangeRate",
          "type": "uint256"
        }
      ],
      "name": "addLiquidity",
      "outputs": [],
      "stateMutability": "payable",
      "type": "function"
    },
    {
      "inputs": [
        {
          "internalType": "uint256",
          "name": "amountTokens",
          "type": "uint256"
        }
      ],
      "name": "createPool",
      "outputs": [],
      "stateMutability": "payable",
      "type": "function"
    },
    {
      "inputs": [],
      "name": "exchange_name",
      "outputs": [
        {
          "internalType": "string",
          "name": "",
          "type": "string"
        }
      ],
      "stateMutability": "view",
      "type": "function"
    },
    {
      "inputs": [],
      "name": "getReserves",
      "outputs": [
        {
          "internalType": "uint256",
          "name": "",
          "type": "uint256"
        },
        {
          "internalType": "uint256",
          "name": "",
          "type": "uint256"
        }
      ],
      "stateMutability": "view",
      "type": "function"
    },
    {
      "inputs": [],
      "name": "getSwapFee",
      "outputs": [
        {
          "internalType": "uint256",
          "name": "",
          "type": "uint256"
        },
        {
          "internalType": "uint256",
          "name": "",
          "type": "uint256"
        }
      ],
      "stateMutability": "view",
      "type": "function"
    },
    {
      "inputs": [],
      "name": "owner",
      "outputs": [
        {
          "internalType": "address",
          "name": "",
          "type": "address"
        }
      ],
      "stateMutability": "view",
      "type": "function"
    },
    {
      "inputs": [
        {
          "internalType": "uint256",
          "name": "maxExchangeRate",
          "type": "uint256"
        },
        {
          "internalType": "uint256",
          "name": "minExchangeRate",
          "type": "uint256"
        }
      ],
      "name": "removeAllLiquidity",
      "outputs": [],
      "stateMutability": "payable",
      "type": "function"
    },
    {
      "inputs": [
        {
          "internalType": "uint256",
          "name": "amountETH",
          "type": "uint256"
        },
        {
          "internalType": "uint256",
          "name": "maxExchangeRate",
          "type": "uint256"
        },
        {
          "internalType": "uint256",
          "name": "minExchangeRate",
          "type": "uint256"
        }
      ],
      "name": "removeLiquidity",
      "outputs": [],
      "stateMutability": "payable",
      "type": "function"
    },
    {
      "inputs": [],
      "name": "renounceOwnership",
      "outputs": [],
      "stateMutability": "nonpayable",
      "type": "function"
    },
    {
      "inputs": [
        {
          "internalType": "uint256",
          "name": "maxSlippageRate",
          "type": "uint256"
        }
      ],
      "name": "swapETHForTokens",
      "outputs": [],
      "stateMutability": "payable",
      "type": "function"
    },
    {
      "inputs": [
        {
          "internalType": "uint256",
          "name": "amountTokens",
          "type": "uint256"
        },
        {
          "internalType": "uint256",
          "name": "maxSlippageRate",
          "type": "uint256"
        }
      ],
      "name": "swapTokensForETH",
      "outputs": [],
      "stateMutability": "payable",
      "type": "function"
    },
    {
      "inputs": [],
      "name": "token",
      "outputs": [
        {
          "internalType": "contract Token",
          "name": "",
          "type": "address"
        }
      ],
      "stateMutability": "view",
      "type": "function"
    },
    {
      "inputs": [
        {
          "internalType": "address",
          "name": "newOwner",
          "type": "address"
        }
      ],
      "name": "transferOwnership",
      "outputs": [],
      "stateMutability": "nonpayable",
      "type": "function"
    }
  ],
  "bytecode": "0x60806040526040518060400160405280600981526020017f416e6e657a537761700000000000000000000000000000000000000000000000815250600190816200004a9190620004a7565b50735fbdb2315678afecb367f032d93f642f64180aa3600260006101000a81548173ffffffffffffffffffffffffffffffffffffffff021916908373ffffffffffffffffffffffffffffffffffffffff160217905550600260009054906101000a900473ffffffffffffffffffffffffffffffffffffffff16600360006101000a81548173ffffffffffffffffffffffffffffffffffffffff021916908373ffffffffffffffffffffffffffffffffffffffff16021790555060006004556000600555600060065560006007556000600a556003600b556064600c55620186a0600e553480156200013a57600080fd5b506200015b6200014f6200016160201b60201c565b6200016960201b60201c565b6200058e565b600033905090565b60008060009054906101000a900473ffffffffffffffffffffffffffffffffffffffff169050816000806101000a81548173ffffffffffffffffffffffffffffffffffffffff021916908373ffffffffffffffffffffffffffffffffffffffff1602179055508173ffffffffffffffffffffffffffffffffffffffff168173ffffffffffffffffffffffffffffffffffffffff167f8be0079c531659141344cd1fd0a4f28419497f9722a3daafe3b4186f6b6457e060405160405180910390a35050565b600081519050919050565b7f4e487b7100000000000000000000000000000000000000000000000000000000600052604160045260246000fd5b7f4e487b7100000000000000000000000000000000000000000000000000000000600052602260045260246000fd5b60006002820490506001821680620002af57607f821691505b602082108103620002c557620002c462000267565b5b50919050565b60008190508160005260206000209050919050565b60006020601f8301049050919050565b600082821b905092915050565b6000600883026200032f7fffffffffffffffffffffffffffffffffffffffffffffffffffffffffffffffff82620002f0565b6200033b8683620002f0565b95508019841693508086168417925050509392505050565b6000819050919050565b6000819050919050565b600062000388620003826200037c8462000353565b6200035d565b62000353565b9050919050565b6000819050919050565b620003a48362000367565b620003bc620003b3826200038f565b848454620002fd565b825550505050565b600090565b620003d3620003c4565b620003e081848462000399565b505050565b5b818110156200040857620003fc600082620003c9565b600181019050620003e6565b5050565b601f82111562000457576200042181620002cb565b6200042c84620002e0565b810160208510156200043c578190505b620004546200044b85620002e0565b830182620003e5565b50505b505050565b600082821c905092915050565b60006200047c600019846008026200045c565b1980831691505092915050565b600062000497838362000469565b9150826002028217905092915050565b620004b2826200022d565b67ffffffffffffffff811115620004ce57620004cd62000238565b5b620004da825462000296565b620004e78282856200040c565b600060209050601f8311600181146200051f57600084156200050a578287015190505b62000516858262000489565b86555062000586565b601f1984166200052f86620002cb565b60005b82811015620005595784890151825560018201915060208501945060208101905062000532565b8683101562000579578489015162000575601f89168262000469565b8355505b6001600288020188555050505b505050505050565b6129e1806200059e6000396000f3fe6080604052600436106100c25760003560e01c80638da5cb5b1161007f578063d4cadf6811610059578063d4cadf68146101dd578063f2fde38b14610209578063f694f7d114610232578063fc0c546a1461025d576100c2565b80638da5cb5b1461017a5780639cd441da146101a5578063a22280a6146101c1576100c2565b80630902f1ac146100c75780632eab2841146100f357806358ad6de41461010f578063715018a61461012b5780638259e6a014610142578063857620e11461015e575b600080fd5b3480156100d357600080fd5b506100dc610288565b6040516100ea929190611a50565b60405180910390f35b61010d60048036038101906101089190611aaa565b610299565b005b61012960048036038101906101249190611ad7565b6104b5565b005b34801561013757600080fd5b50610140610843565b005b61015c60048036038101906101579190611aaa565b610857565b005b61017860048036038101906101739190611b17565b610c07565b005b34801561018657600080fd5b5061018f6110e5565b60405161019c9190611bab565b60405180910390f35b6101bf60048036038101906101ba9190611ad7565b61110e565b005b6101db60048036038101906101d69190611ad7565b611461565b005b3480156101e957600080fd5b506101f26117a5565b604051610200929190611a50565b60405180910390f35b34801561021557600080fd5b50610230600480360381019061022b9190611bf2565b6117b6565b005b34801561023e57600080fd5b50610247611839565b6040516102549190611caf565b60405180910390f35b34801561026957600080fd5b506102726118c7565b60405161027f9190611d30565b60405180910390f35b600080600554600454915091509091565b600034116102dc576040517f08c379a00000000000000000000000000000000000000000000000000000000081526004016102d390611d97565b60405180910390fd5b6000600c54600b54346102ef9190611de6565b6102f99190611e57565b9050600081346103099190611e88565b905060006005548260045461031e9190611de6565b6103289190611e57565b9050600081600e548461033b9190611de6565b6103459190611e57565b90508481111561038a576040517f08c379a000000000000000000000000000000000000000000000000000000000815260040161038190611f08565b60405180910390fd5b60018260045461039a9190611e88565b10156103db576040517f08c379a00000000000000000000000000000000000000000000000000000000081526004016103d290611f9a565b60405180910390fd5b600360009054906101000a900473ffffffffffffffffffffffffffffffffffffffff1673ffffffffffffffffffffffffffffffffffffffff1663a9059cbb33846040518363ffffffff1660e01b8152600401610438929190611fba565b6020604051808303816000875af1158015610457573d6000803e3d6000fd5b505050506040513d601f19601f8201168201806040525081019061047b919061201b565b50816004600082825461048e9190611e88565b9250508190555082600560008282546104a79190612048565b925050819055505050505050565b6000600860003373ffffffffffffffffffffffffffffffffffffffff1673ffffffffffffffffffffffffffffffffffffffff1681526020019081526020016000205490506000811161053c576040517f08c379a0000000000000000000000000000000000000000000000000000000008152600401610533906120c8565b60405180910390fd5b6000600454600e546005546105519190611de6565b61055b9190611e57565b9050828110156105a0576040517f08c379a000000000000000000000000000000000000000000000000000000000815260040161059790612134565b60405180910390fd5b838111156105e3576040517f08c379a00000000000000000000000000000000000000000000000000000000081526004016105da906121a0565b60405180910390fd5b6000600a54836005546105f69190611de6565b6106009190611e57565b90506000600a54846004546106159190611de6565b61061f9190611e57565b90506001826005546106319190611e88565b1015610672576040517f08c379a000000000000000000000000000000000000000000000000000000000815260040161066990612232565b60405180910390fd5b6001816004546106829190611e88565b10156106c3576040517f08c379a00000000000000000000000000000000000000000000000000000000081526004016106ba90611f9a565b60405180910390fd5b3373ffffffffffffffffffffffffffffffffffffffff166108fc839081150290604051600060405180830381858888f19350505050158015610709573d6000803e3d6000fd5b50600360009054906101000a900473ffffffffffffffffffffffffffffffffffffffff1673ffffffffffffffffffffffffffffffffffffffff1663a9059cbb33836040518363ffffffff1660e01b8152600401610767929190611fba565b6020604051808303816000875af1158015610786573d6000803e3d6000fd5b505050506040513d601f19601f820116820180604052508101906107aa919061201b565b5083600a60008282546107bd9190611e88565b925050819055506000600860003373ffffffffffffffffffffffffffffffffffffffff1673ffffffffffffffffffffffffffffffffffffffff16815260200190815260200160002081905550816005600082825461081b9190611e88565b9250508190555080600460008282546108349190611e88565b92505081905550505050505050565b61084b6118ed565b610855600061196b565b565b61085f6118ed565b6000600454146108a4576040517f08c379a000000000000000000000000000000000000000000000000000000000815260040161089b9061229e565b60405180910390fd5b6000600554146108e9576040517f08c379a00000000000000000000000000000000000000000000000000000000081526004016108e09061230a565b60405180910390fd5b6000341161092c576040517f08c379a000000000000000000000000000000000000000000000000000000000815260040161092390612376565b60405180910390fd5b6000600360009054906101000a900473ffffffffffffffffffffffffffffffffffffffff1673ffffffffffffffffffffffffffffffffffffffff166370a08231336040518263ffffffff1660e01b81526004016109899190611bab565b602060405180830381865afa1580156109a6573d6000803e3d6000fd5b505050506040513d601f19601f820116820180604052508101906109ca91906123ab565b905080821115610a0f576040517f08c379a0000000000000000000000000000000000000000000000000000000008152600401610a069061244a565b60405180910390fd5b60008211610a52576040517f08c379a0000000000000000000000000000000000000000000000000000000008152600401610a49906124b6565b60405180910390fd5b600360009054906101000a900473ffffffffffffffffffffffffffffffffffffffff1673ffffffffffffffffffffffffffffffffffffffff166323b872dd3330856040518463ffffffff1660e01b8152600401610ab1939291906124d6565b6020604051808303816000875af1158015610ad0573d6000803e3d6000fd5b505050506040513d601f19601f82011682018060405250810190610af4919061201b565b50600360009054906101000a900473ffffffffffffffffffffffffffffffffffffffff1673ffffffffffffffffffffffffffffffffffffffff166370a08231306040518263ffffffff1660e01b8152600401610b509190611bab565b602060405180830381865afa158015610b6d573d6000803e3d6000fd5b505050506040513d601f19601f82011682018060405250810190610b9191906123ab565b60048190555034600581905550600554600454610bae9190611de6565b600d81905550620186a0600a819055506064600860003373ffffffffffffffffffffffffffffffffffffffff1673ffffffffffffffffffffffffffffffffffffffff168152602001908152602001600020819055505050565b60008311610c4a576040517f08c379a0000000000000000000000000000000000000000000000000000000008152600401610c419061257f565b60405180910390fd5b6000600860003373ffffffffffffffffffffffffffffffffffffffff1673ffffffffffffffffffffffffffffffffffffffff1681526020019081526020016000205411610ccc576040517f08c379a0000000000000000000000000000000000000000000000000000000008152600401610cc3906125eb565b60405180910390fd5b826005541015610d11576040517f08c379a0000000000000000000000000000000000000000000000000000000008152600401610d0890612657565b60405180910390fd5b600060055484600a54610d249190611de6565b610d2e9190611e57565b9050600860003373ffffffffffffffffffffffffffffffffffffffff1673ffffffffffffffffffffffffffffffffffffffff16815260200190815260200160002054811115610db2576040517f08c379a0000000000000000000000000000000000000000000000000000000008152600401610da9906126c3565b60405180910390fd5b600060055485600454610dc59190611de6565b610dcf9190611e57565b9050600081600e54600554610de49190611de6565b610dee9190611e57565b905083811015610e33576040517f08c379a0000000000000000000000000000000000000000000000000000000008152600401610e2a90612134565b60405180910390fd5b84811115610e76576040517f08c379a0000000000000000000000000000000000000000000000000000000008152600401610e6d906121a0565b60405180910390fd5b81600360009054906101000a900473ffffffffffffffffffffffffffffffffffffffff1673ffffffffffffffffffffffffffffffffffffffff166370a08231306040518263ffffffff1660e01b8152600401610ed29190611bab565b602060405180830381865afa158015610eef573d6000803e3d6000fd5b505050506040513d601f19601f82011682018060405250810190610f1391906123ab565b1015610f54576040517f08c379a0000000000000000000000000000000000000000000000000000000008152600401610f4b9061272f565b60405180910390fd5b82600860003373ffffffffffffffffffffffffffffffffffffffff1673ffffffffffffffffffffffffffffffffffffffff1681526020019081526020016000206000828254610fa39190611e88565b9250508190555082600a6000828254610fbc9190611e88565b925050819055508560056000828254610fd59190611e88565b925050819055508160046000828254610fee9190611e88565b92505081905550600360009054906101000a900473ffffffffffffffffffffffffffffffffffffffff1673ffffffffffffffffffffffffffffffffffffffff1663a9059cbb33846040518363ffffffff1660e01b8152600401611052929190611fba565b6020604051808303816000875af1158015611071573d6000803e3d6000fd5b505050506040513d601f19601f82011682018060405250810190611095919061201b565b503373ffffffffffffffffffffffffffffffffffffffff166108fc879081150290604051600060405180830381858888f193505050501580156110dc573d6000803e3d6000fd5b50505050505050565b60008060009054906101000a900473ffffffffffffffffffffffffffffffffffffffff16905090565b60003411611151576040517f08c379a00000000000000000000000000000000000000000000000000000000081526004016111489061279b565b60405180910390fd5b60003490506000600554826004546111699190611de6565b6111739190611e57565b905080600360009054906101000a900473ffffffffffffffffffffffffffffffffffffffff1673ffffffffffffffffffffffffffffffffffffffff166370a08231336040518263ffffffff1660e01b81526004016111d19190611bab565b602060405180830381865afa1580156111ee573d6000803e3d6000fd5b505050506040513d601f19601f8201168201806040525081019061121291906123ab565b1015611253576040517f08c379a000000000000000000000000000000000000000000000000000000000815260040161124a9061272f565b60405180910390fd5b600081600e54846112649190611de6565b61126e9190611e57565b9050838110156112b3576040517f08c379a00000000000000000000000000000000000000000000000000000000081526004016112aa90612134565b60405180910390fd5b848111156112f6576040517f08c379a00000000000000000000000000000000000000000000000000000000081526004016112ed906121a0565b60405180910390fd5b600360009054906101000a900473ffffffffffffffffffffffffffffffffffffffff1673ffffffffffffffffffffffffffffffffffffffff166323b872dd3330856040518463ffffffff1660e01b8152600401611355939291906124d6565b6020604051808303816000875af1158015611374573d6000803e3d6000fd5b505050506040513d601f19601f82011682018060405250810190611398919061201b565b50600060055484600a546113ac9190611de6565b6113b69190611e57565b905080600860003373ffffffffffffffffffffffffffffffffffffffff1673ffffffffffffffffffffffffffffffffffffffff16815260200190815260200160002060008282546114079190612048565b9250508190555080600a60008282546114209190612048565b9250508190555083600560008282546114399190612048565b9250508190555082600460008282546114529190612048565b92505081905550505050505050565b600082116114a4576040517f08c379a000000000000000000000000000000000000000000000000000000000815260040161149b9061282d565b60405180910390fd5b81600360009054906101000a900473ffffffffffffffffffffffffffffffffffffffff1673ffffffffffffffffffffffffffffffffffffffff166370a08231336040518263ffffffff1660e01b81526004016115009190611bab565b602060405180830381865afa15801561151d573d6000803e3d6000fd5b505050506040513d601f19601f8201168201806040525081019061154191906123ab565b1015611582576040517f08c379a00000000000000000000000000000000000000000000000000000000081526004016115799061272f565b60405180910390fd5b6000600c54600b54846115959190611de6565b61159f9190611e57565b9050600081846115af9190611e88565b90506000600454856005546115c49190611de6565b6115ce9190611e57565b9050600082600e54836115e19190611de6565b6115eb9190611e57565b905084811115611630576040517f08c379a000000000000000000000000000000000000000000000000000000000815260040161162790611f08565b60405180910390fd5b6001826005546116409190611e88565b1015611681576040517f08c379a000000000000000000000000000000000000000000000000000000000815260040161167890612232565b60405180910390fd5b600360009054906101000a900473ffffffffffffffffffffffffffffffffffffffff1673ffffffffffffffffffffffffffffffffffffffff166323b872dd3330896040518463ffffffff1660e01b81526004016116e0939291906124d6565b6020604051808303816000875af11580156116ff573d6000803e3d6000fd5b505050506040513d601f19601f82011682018060405250810190611723919061201b565b503373ffffffffffffffffffffffffffffffffffffffff166108fc839081150290604051600060405180830381858888f1935050505015801561176a573d6000803e3d6000fd5b50826004600082825461177d9190612048565b9250508190555081600560008282546117969190611e88565b92505081905550505050505050565b600080600b54600c54915091509091565b6117be6118ed565b600073ffffffffffffffffffffffffffffffffffffffff168173ffffffffffffffffffffffffffffffffffffffff160361182d576040517f08c379a0000000000000000000000000000000000000000000000000000000008152600401611824906128bf565b60405180910390fd5b6118368161196b565b50565b600180546118469061290e565b80601f01602080910402602001604051908101604052809291908181526020018280546118729061290e565b80156118bf5780601f10611894576101008083540402835291602001916118bf565b820191906000526020600020905b8154815290600101906020018083116118a257829003601f168201915b505050505081565b600360009054906101000a900473ffffffffffffffffffffffffffffffffffffffff1681565b6118f5611a2f565b73ffffffffffffffffffffffffffffffffffffffff166119136110e5565b73ffffffffffffffffffffffffffffffffffffffff1614611969576040517f08c379a00000000000000000000000000000000000000000000000000000000081526004016119609061298b565b60405180910390fd5b565b60008060009054906101000a900473ffffffffffffffffffffffffffffffffffffffff169050816000806101000a81548173ffffffffffffffffffffffffffffffffffffffff021916908373ffffffffffffffffffffffffffffffffffffffff1602179055508173ffffffffffffffffffffffffffffffffffffffff168173ffffffffffffffffffffffffffffffffffffffff167f8be0079c531659141344cd1fd0a4f28419497f9722a3daafe3b4186f6b6457e060405160405180910390a35050565b600033905090565b6000819050919050565b611a4a81611a37565b82525050565b6000604082019050611a656000830185611a41565b611a726020830184611a41565b9392505050565b600080fd5b611a8781611a37565b8114611a9257600080fd5b50565b600081359050611aa481611a7e565b92915050565b600060208284031215611ac057611abf611a79565b5b6000611ace84828501611a95565b91505092915050565b60008060408385031215611aee57611aed611a79565b5b6000611afc85828601611a95565b9250506020611b0d85828601611a95565b9150509250929050565b600080600060608486031215611b3057611b2f611a79565b5b6000611b3e86828701611a95565b9350506020611b4f86828701611a95565b9250506040611b6086828701611a95565b9150509250925092565b600073ffffffffffffffffffffffffffffffffffffffff82169050919050565b6000611b9582611b6a565b9050919050565b611ba581611b8a565b82525050565b6000602082019050611bc06000830184611b9c565b92915050565b611bcf81611b8a565b8114611bda57600080fd5b50565b600081359050611bec81611bc6565b92915050565b600060208284031215611c0857611c07611a79565b5b6000611c1684828501611bdd565b91505092915050565b600081519050919050565b600082825260208201905092915050565b60005b83811015611c59578082015181840152602081019050611c3e565b60008484015250505050565b6000601f19601f8301169050919050565b6000611c8182611c1f565b611c8b8185611c2a565b9350611c9b818560208601611c3b565b611ca481611c65565b840191505092915050565b60006020820190508181036000830152611cc98184611c76565b905092915050565b6000819050919050565b6000611cf6611cf1611cec84611b6a565b611cd1565b611b6a565b9050919050565b6000611d0882611cdb565b9050919050565b6000611d1a82611cfd565b9050919050565b611d2a81611d0f565b82525050565b6000602082019050611d456000830184611d21565b92915050565b7f4d7573742073656e64206d6f7265207468616e20302045544800000000000000600082015250565b6000611d81601983611c2a565b9150611d8c82611d4b565b602082019050919050565b60006020820190508181036000830152611db081611d74565b9050919050565b7f4e487b7100000000000000000000000000000000000000000000000000000000600052601160045260246000fd5b6000611df182611a37565b9150611dfc83611a37565b9250828202611e0a81611a37565b91508282048414831517611e2157611e20611db7565b5b5092915050565b7f4e487b7100000000000000000000000000000000000000000000000000000000600052601260045260246000fd5b6000611e6282611a37565b9150611e6d83611a37565b925082611e7d57611e7c611e28565b5b828204905092915050565b6000611e9382611a37565b9150611e9e83611a37565b9250828203905081811115611eb657611eb5611db7565b5b92915050565b7f536c697070616765207261746520746f6f206869676800000000000000000000600082015250565b6000611ef2601683611c2a565b9150611efd82611ebc565b602082019050919050565b60006020820190508181036000830152611f2181611ee5565b9050919050565b7f4d757374206c65617665206174206c65617374203120746f6b656e20696e207060008201527f6f6f6c0000000000000000000000000000000000000000000000000000000000602082015250565b6000611f84602383611c2a565b9150611f8f82611f28565b604082019050919050565b60006020820190508181036000830152611fb381611f77565b9050919050565b6000604082019050611fcf6000830185611b9c565b611fdc6020830184611a41565b9392505050565b60008115159050919050565b611ff881611fe3565b811461200357600080fd5b50565b60008151905061201581611fef565b92915050565b60006020828403121561203157612030611a79565b5b600061203f84828501612006565b91505092915050565b600061205382611a37565b915061205e83611a37565b925082820190508082111561207657612075611db7565b5b92915050565b7f4e6f206c697175696469747920746f2072656d6f766500000000000000000000600082015250565b60006120b2601683611c2a565b91506120bd8261207c565b602082019050919050565b600060208201905081810360008301526120e1816120a5565b9050919050565b7f45786368616e6765207261746520746f6f206c6f770000000000000000000000600082015250565b600061211e601583611c2a565b9150612129826120e8565b602082019050919050565b6000602082019050818103600083015261214d81612111565b9050919050565b7f45786368616e6765207261746520746f6f206869676800000000000000000000600082015250565b600061218a601683611c2a565b915061219582612154565b602082019050919050565b600060208201905081810360008301526121b98161217d565b9050919050565b7f4d757374206c65617665206174206c6561737420312045544820696e20706f6f60008201527f6c00000000000000000000000000000000000000000000000000000000000000602082015250565b600061221c602183611c2a565b9150612227826121c0565b604082019050919050565b6000602082019050818103600083015261224b8161220f565b9050919050565b7f546f6b656e20726573657276657320776173206e6f7420300000000000000000600082015250565b6000612288601883611c2a565b915061229382612252565b602082019050919050565b600060208201905081810360008301526122b78161227b565b9050919050565b7f45544820726573657276657320776173206e6f7420302e000000000000000000600082015250565b60006122f4601783611c2a565b91506122ff826122be565b602082019050919050565b60006020820190508181036000830152612323816122e7565b9050919050565b7f4e6565642065746820746f2063726561746520706f6f6c2e0000000000000000600082015250565b6000612360601883611c2a565b915061236b8261232a565b602082019050919050565b6000602082019050818103600083015261238f81612353565b9050919050565b6000815190506123a581611a7e565b92915050565b6000602082840312156123c1576123c0611a79565b5b60006123cf84828501612396565b91505092915050565b7f4e6f74206861766520656e6f75676820746f6b656e7320746f2063726561746560008201527f2074686520706f6f6c0000000000000000000000000000000000000000000000602082015250565b6000612434602983611c2a565b915061243f826123d8565b604082019050919050565b6000602082019050818103600083015261246381612427565b9050919050565b7f4e65656420746f6b656e7320746f2063726561746520706f6f6c2e0000000000600082015250565b60006124a0601b83611c2a565b91506124ab8261246a565b602082019050919050565b600060208201905081810360008301526124cf81612493565b9050919050565b60006060820190506124eb6000830186611b9c565b6124f86020830185611b9c565b6125056040830184611a41565b949350505050565b7f4d757374207370656369667920616e20616d6f756e74206f662045544820746f60008201527f2072656d6f766500000000000000000000000000000000000000000000000000602082015250565b6000612569602783611c2a565b91506125748261250d565b604082019050919050565b600060208201905081810360008301526125988161255c565b9050919050565b7f55736572206973206e6f742061206c69717569646974792070726f7669646572600082015250565b60006125d5602083611c2a565b91506125e08261259f565b602082019050919050565b60006020820190508181036000830152612604816125c8565b9050919050565b7f496e73756666696369656e742045544820726573657276657300000000000000600082015250565b6000612641601983611c2a565b915061264c8261260b565b602082019050919050565b6000602082019050818103600083015261267081612634565b9050919050565b7f4e6f7420656e6f756768206c6971756964697479206f776e6564000000000000600082015250565b60006126ad601a83611c2a565b91506126b882612677565b602082019050919050565b600060208201905081810360008301526126dc816126a0565b9050919050565b7f496e73756666696369656e7420746f6b656e7300000000000000000000000000600082015250565b6000612719601383611c2a565b9150612724826126e3565b602082019050919050565b600060208201905081810360008301526127488161270c565b9050919050565b7f4d7573742073656e642045544800000000000000000000000000000000000000600082015250565b6000612785600d83611c2a565b91506127908261274f565b602082019050919050565b600060208201905081810360008301526127b481612778565b9050919050565b7f4d757374207370656369667920616e20616d6f756e74206f6620746f6b656e7360008201527f20746f2073776170000000000000000000000000000000000000000000000000602082015250565b6000612817602883611c2a565b9150612822826127bb565b604082019050919050565b600060208201905081810360008301526128468161280a565b9050919050565b7f4f776e61626c653a206e6577206f776e657220697320746865207a65726f206160008201527f6464726573730000000000000000000000000000000000000000000000000000602082015250565b60006128a9602683611c2a565b91506128b48261284d565b604082019050919050565b600060208201905081810360008301526128d88161289c565b9050919050565b7f4e487b7100000000000000000000000000000000000000000000000000000000600052602260045260246000fd5b6000600282049050600182168061292657607f821691505b602082108103612939576129386128df565b5b50919050565b7f4f776e61626c653a2063616c6c6572206973206e6f7420746865206f776e6572600082015250565b6000612975602083611c2a565b91506129808261293f565b602082019050919050565b600060208201905081810360008301526129a481612968565b905091905056fea2646970667358221220f904c13a37d923b5478f0668b049e49368d3bdecfe652a374d25370f2c5d401e64736f6c63430008110033",
  "linkReferences": {},
  "deployedLinkReferences": {}
}