{
  "_format": "hh-sol-artifact-1",
  "contractName": "Token",
  "sourceName": "contracts/token.sol",
  "abi": [
    {
      "inputs": [],
      "stateMutability": "nonpayable",
      "type": "constructor"
    },
    {
      "anonymous": false,
      "inputs": [
        {
          "indexed": true,
          "internalType": "address",
          "name": "owner",
          "type": "address"
        },
        {
          "indexed": true,
          "internalType": "address",
          "name": "spender",
          "type": "address"
        },
        {
          "indexed": false,
          "internalType": "uint256",
          "name": "value",
          "type": "uint256"
        }
      ],
      "name": "Approval",
      "type": "event"
    },
    {
      "anonymous": false,
      "inputs": [
        {
          "indexed": true,
          "internalType": "address",
          "name": "previousOwner",
          "type": "address"
        },
        {
          "indexed": true,
          "internalType": "address",
          "name": "newOwner",
          "type": "address"
        }
      ],
      "name": "OwnershipTransferred",
      "type": "event"
    },
    {
      "anonymous": false,
      "inputs": [
        {
          "indexed": true,
          "internalType": "address",
          "name": "from",
          "type": "address"
        },
        {
          "indexed": true,
          "internalType": "address",
          "name": "to",
          "type": "address"
        },
        {
          "indexed": false,
          "internalType": "uint256",
          "name": "value",
          "type": "uint256"
        }
      ],
      "name": "Transfer",
      "type": "event"
    },
    {
      "inputs": [
        {
          "internalType": "address",
          "name": "owner",
          "type": "address"
        },
        {
          "internalType": "address",
          "name": "spender",
          "type": "address"
        }
      ],
      "name": "allowance",
      "outputs": [
        {
          "internalType": "uint256",
          "name": "",
          "type": "uint256"
        }
      ],
      "stateMutability": "view",
      "type": "function"
    },
    {
      "inputs": [
        {
          "internalType": "address",
          "name": "spender",
          "type": "address"
        },
        {
          "internalType": "uint256",
          "name": "amount",
          "type": "uint256"
        }
      ],
      "name": "approve",
      "outputs": [
        {
          "internalType": "bool",
          "name": "",
          "type": "bool"
        }
      ],
      "stateMutability": "nonpayable",
      "type": "function"
    },
    {
      "inputs": [
        {
          "internalType": "address",
          "name": "account",
          "type": "address"
        }
      ],
      "name": "balanceOf",
      "outputs": [
        {
          "internalType": "uint256",
          "name": "",
          "type": "uint256"
        }
      ],
      "stateMutability": "view",
      "type": "function"
    },
    {
      "inputs": [],
      "name": "decimals",
      "outputs": [
        {
          "internalType": "uint8",
          "name": "",
          "type": "uint8"
        }
      ],
      "stateMutability": "view",
      "type": "function"
    },
    {
      "inputs": [
        {
          "internalType": "address",
          "name": "spender",
          "type": "address"
        },
        {
          "internalType": "uint256",
          "name": "subtractedValue",
          "type": "uint256"
        }
      ],
      "name": "decreaseAllowance",
      "outputs": [
        {
          "internalType": "bool",
          "name": "",
          "type": "bool"
        }
      ],
      "stateMutability": "nonpayable",
      "type": "function"
    },
    {
      "inputs": [],
      "name": "disable_mint",
      "outputs": [],
      "stateMutability": "nonpayable",
      "type": "function"
    },
    {
      "inputs": [
        {
          "internalType": "address",
          "name": "spender",
          "type": "address"
        },
        {
          "internalType": "uint256",
          "name": "addedValue",
          "type": "uint256"
        }
      ],
      "name": "increaseAllowance",
      "outputs": [
        {
          "internalType": "bool",
          "name": "",
          "type": "bool"
        }
      ],
      "stateMutability": "nonpayable",
      "type": "function"
    },
    {
      "inputs": [
        {
          "internalType": "uint256",
          "name": "amount",
          "type": "uint256"
        }
      ],
      "name": "mint",
      "outputs": [],
      "stateMutability": "nonpayable",
      "type": "function"
    },
    {
      "inputs": [],
      "name": "mintingDisabled",
      "outputs": [
        {
          "internalType": "bool",
          "name": "",
          "type": "bool"
        }
      ],
      "stateMutability": "view",
      "type": "function"
    },
    {
      "inputs": [],
      "name": "name",
      "outputs": [
        {
          "internalType": "string",
          "name": "",
          "type": "string"
        }
      ],
      "stateMutability": "view",
      "type": "function"
    },
    {
      "inputs": [],
      "name": "owner",
      "outputs": [
        {
          "internalType": "address",
          "name": "",
          "type": "address"
        }
      ],
      "stateMutability": "view",
      "type": "function"
    },
    {
      "inputs": [],
      "name": "renounceOwnership",
      "outputs": [],
      "stateMutability": "nonpayable",
      "type": "function"
    },
    {
      "inputs": [],
      "name": "symbol",
      "outputs": [
        {
          "internalType": "string",
          "name": "",
          "type": "string"
        }
      ],
      "stateMutability": "view",
      "type": "function"
    },
    {
      "inputs": [],
      "name": "totalSupply",
      "outputs": [
        {
          "internalType": "uint256",
          "name": "",
          "type": "uint256"
        }
      ],
      "stateMutability": "view",
      "type": "function"
    },
    {
      "inputs": [
        {
          "internalType": "address",
          "name": "to",
          "type": "address"
        },
        {
          "internalType": "uint256",
          "name": "amount",
          "type": "uint256"
        }
      ],
      "name": "transfer",
      "outputs": [
        {
          "internalType": "bool",
          "name": "",
          "type": "bool"
        }
      ],
      "stateMutability": "nonpayable",
      "type": "function"
    },
    {
      "inputs": [
        {
          "internalType": "address",
          "name": "from",
          "type": "address"
        },
        {
          "internalType": "address",
          "name": "to",
          "type": "address"
        },
        {
          "internalType": "uint256",
          "name": "amount",
          "type": "uint256"
        }
      ],
      "name": "transferFrom",
      "outputs": [
        {
          "internalType": "bool",
          "name": "",
          "type": "bool"
        }
      ],
      "stateMutability": "nonpayable",
      "type": "function"
    },
    {
      "inputs": [
        {
          "internalType": "address",
          "name": "newOwner",
          "type": "address"
        }
      ],
      "name": "transferOwnership",
      "outputs": [],
      "stateMutability": "nonpayable",
      "type": "function"
    }
  ],
  "bytecode": "0x60806040526000600660006101000a81548160ff0219169083151502179055503480156200002c57600080fd5b506040518060400160405280600581526020017f416e6e657a0000000000000000000000000000000000000000000000000000008152506040518060400160405280600381526020017f416e6e0000000000000000000000000000000000000000000000000000000000815250620000b9620000ad620000e560201b60201c565b620000ed60201b60201c565b8160049081620000ca91906200042b565b508060059081620000dc91906200042b565b50505062000512565b600033905090565b60008060009054906101000a900473ffffffffffffffffffffffffffffffffffffffff169050816000806101000a81548173ffffffffffffffffffffffffffffffffffffffff021916908373ffffffffffffffffffffffffffffffffffffffff1602179055508173ffffffffffffffffffffffffffffffffffffffff168173ffffffffffffffffffffffffffffffffffffffff167f8be0079c531659141344cd1fd0a4f28419497f9722a3daafe3b4186f6b6457e060405160405180910390a35050565b600081519050919050565b7f4e487b7100000000000000000000000000000000000000000000000000000000600052604160045260246000fd5b7f4e487b7100000000000000000000000000000000000000000000000000000000600052602260045260246000fd5b600060028204905060018216806200023357607f821691505b602082108103620002495762000248620001eb565b5b50919050565b60008190508160005260206000209050919050565b60006020601f8301049050919050565b600082821b905092915050565b600060088302620002b37fffffffffffffffffffffffffffffffffffffffffffffffffffffffffffffffff8262000274565b620002bf868362000274565b95508019841693508086168417925050509392505050565b6000819050919050565b6000819050919050565b60006200030c620003066200030084620002d7565b620002e1565b620002d7565b9050919050565b6000819050919050565b6200032883620002eb565b62000340620003378262000313565b84845462000281565b825550505050565b600090565b6200035762000348565b620003648184846200031d565b505050565b5b818110156200038c57620003806000826200034d565b6001810190506200036a565b5050565b601f821115620003db57620003a5816200024f565b620003b08462000264565b81016020851015620003c0578190505b620003d8620003cf8562000264565b83018262000369565b50505b505050565b600082821c905092915050565b60006200040060001984600802620003e0565b1980831691505092915050565b60006200041b8383620003ed565b9150826002028217905092915050565b6200043682620001b1565b67ffffffffffffffff811115620004525762000451620001bc565b5b6200045e82546200021a565b6200046b82828562000390565b600060209050601f831160018114620004a357600084156200048e578287015190505b6200049a85826200040d565b8655506200050a565b601f198416620004b3866200024f565b60005b82811015620004dd57848901518255600182019150602085019450602081019050620004b6565b86831015620004fd5784890151620004f9601f891682620003ed565b8355505b6001600288020188555050505b505050505050565b61194080620005226000396000f3fe608060405234801561001057600080fd5b506004361061010b5760003560e01c8063715018a6116100a2578063a457c2d711610071578063a457c2d7146102aa578063a8b7818d146102da578063a9059cbb146102e4578063dd62ed3e14610314578063f2fde38b146103445761010b565b8063715018a6146102485780638da5cb5b1461025257806395d89b4114610270578063a0712d681461028e5761010b565b806323b872dd116100de57806323b872dd1461019a578063313ce567146101ca57806339509351146101e857806370a08231146102185761010b565b806306fdde0314610110578063095ea7b31461012e57806318160ddd1461015e57806321afb5ee1461017c575b600080fd5b610118610360565b6040516101259190610ff0565b60405180910390f35b610148600480360381019061014391906110ab565b6103f2565b6040516101559190611106565b60405180910390f35b610166610415565b6040516101739190611130565b60405180910390f35b61018461041f565b6040516101919190611106565b60405180910390f35b6101b460048036038101906101af919061114b565b610432565b6040516101c19190611106565b60405180910390f35b6101d2610461565b6040516101df91906111ba565b60405180910390f35b61020260048036038101906101fd91906110ab565b61046a565b60405161020f9190611106565b60405180910390f35b610232600480360381019061022d91906111d5565b6104a1565b60405161023f9190611130565b60405180910390f35b6102506104ea565b005b61025a6104fe565b6040516102679190611211565b60405180910390f35b610278610527565b6040516102859190610ff0565b60405180910390f35b6102a860048036038101906102a3919061122c565b6105b9565b005b6102c460048036038101906102bf91906110ab565b61061e565b6040516102d19190611106565b60405180910390f35b6102e2610695565b005b6102fe60048036038101906102f991906110ab565b6106ba565b60405161030b9190611106565b60405180910390f35b61032e60048036038101906103299190611259565b6106dd565b60405161033b9190611130565b60405180910390f35b61035e600480360381019061035991906111d5565b610764565b005b60606004805461036f906112c8565b80601f016020809104026020016040519081016040528092919081815260200182805461039b906112c8565b80156103e85780601f106103bd576101008083540402835291602001916103e8565b820191906000526020600020905b8154815290600101906020018083116103cb57829003601f168201915b5050505050905090565b6000806103fd6107e7565b905061040a8185856107ef565b600191505092915050565b6000600354905090565b600660009054906101000a900460ff1681565b60008061043d6107e7565b905061044a8582856109b8565b610455858585610a44565b60019150509392505050565b60006012905090565b6000806104756107e7565b905061049681858561048785896106dd565b6104919190611328565b6107ef565b600191505092915050565b6000600160008373ffffffffffffffffffffffffffffffffffffffff1673ffffffffffffffffffffffffffffffffffffffff168152602001908152602001600020549050919050565b6104f2610cbd565b6104fc6000610d3b565b565b60008060009054906101000a900473ffffffffffffffffffffffffffffffffffffffff16905090565b606060058054610536906112c8565b80601f0160208091040260200160405190810160405280929190818152602001828054610562906112c8565b80156105af5780601f10610584576101008083540402835291602001916105af565b820191906000526020600020905b81548152906001019060200180831161059257829003601f168201915b5050505050905090565b6105c1610cbd565b600660009054906101000a900460ff1615610611576040517f08c379a0000000000000000000000000000000000000000000000000000000008152600401610608906113a8565b60405180910390fd5b61061b3382610dff565b50565b6000806106296107e7565b9050600061063782866106dd565b90508381101561067c576040517f08c379a00000000000000000000000000000000000000000000000000000000081526004016106739061143a565b60405180910390fd5b61068982868684036107ef565b60019250505092915050565b61069d610cbd565b6001600660006101000a81548160ff021916908315150217905550565b6000806106c56107e7565b90506106d2818585610a44565b600191505092915050565b6000600260008473ffffffffffffffffffffffffffffffffffffffff1673ffffffffffffffffffffffffffffffffffffffff16815260200190815260200160002060008373ffffffffffffffffffffffffffffffffffffffff1673ffffffffffffffffffffffffffffffffffffffff16815260200190815260200160002054905092915050565b61076c610cbd565b600073ffffffffffffffffffffffffffffffffffffffff168173ffffffffffffffffffffffffffffffffffffffff16036107db576040517f08c379a00000000000000000000000000000000000000000000000000000000081526004016107d2906114cc565b60405180910390fd5b6107e481610d3b565b50565b600033905090565b600073ffffffffffffffffffffffffffffffffffffffff168373ffffffffffffffffffffffffffffffffffffffff160361085e576040517f08c379a00000000000000000000000000000000000000000000000000000000081526004016108559061155e565b60405180910390fd5b600073ffffffffffffffffffffffffffffffffffffffff168273ffffffffffffffffffffffffffffffffffffffff16036108cd576040517f08c379a00000000000000000000000000000000000000000000000000000000081526004016108c4906115f0565b60405180910390fd5b80600260008573ffffffffffffffffffffffffffffffffffffffff1673ffffffffffffffffffffffffffffffffffffffff16815260200190815260200160002060008473ffffffffffffffffffffffffffffffffffffffff1673ffffffffffffffffffffffffffffffffffffffff168152602001908152602001600020819055508173ffffffffffffffffffffffffffffffffffffffff168373ffffffffffffffffffffffffffffffffffffffff167f8c5be1e5ebec7d5bd14f71427d1e84f3dd0314c0f7b2291e5b200ac8c7c3b925836040516109ab9190611130565b60405180910390a3505050565b60006109c484846106dd565b90507fffffffffffffffffffffffffffffffffffffffffffffffffffffffffffffffff8114610a3e5781811015610a30576040517f08c379a0000000000000000000000000000000000000000000000000000000008152600401610a279061165c565b60405180910390fd5b610a3d84848484036107ef565b5b50505050565b600073ffffffffffffffffffffffffffffffffffffffff168373ffffffffffffffffffffffffffffffffffffffff1603610ab3576040517f08c379a0000000000000000000000000000000000000000000000000000000008152600401610aaa906116ee565b60405180910390fd5b600073ffffffffffffffffffffffffffffffffffffffff168273ffffffffffffffffffffffffffffffffffffffff1603610b22576040517f08c379a0000000000000000000000000000000000000000000000000000000008152600401610b1990611780565b60405180910390fd5b610b2d838383610f56565b6000600160008573ffffffffffffffffffffffffffffffffffffffff1673ffffffffffffffffffffffffffffffffffffffff16815260200190815260200160002054905081811015610bb4576040517f08c379a0000000000000000000000000000000000000000000000000000000008152600401610bab90611812565b60405180910390fd5b818103600160008673ffffffffffffffffffffffffffffffffffffffff1673ffffffffffffffffffffffffffffffffffffffff1681526020019081526020016000208190555081600160008573ffffffffffffffffffffffffffffffffffffffff1673ffffffffffffffffffffffffffffffffffffffff168152602001908152602001600020600082825401925050819055508273ffffffffffffffffffffffffffffffffffffffff168473ffffffffffffffffffffffffffffffffffffffff167fddf252ad1be2c89b69c2b068fc378daa952ba7f163c4a11628f55a4df523b3ef84604051610ca49190611130565b60405180910390a3610cb7848484610f5b565b50505050565b610cc56107e7565b73ffffffffffffffffffffffffffffffffffffffff16610ce36104fe565b73ffffffffffffffffffffffffffffffffffffffff1614610d39576040517f08c379a0000000000000000000000000000000000000000000000000000000008152600401610d309061187e565b60405180910390fd5b565b60008060009054906101000a900473ffffffffffffffffffffffffffffffffffffffff169050816000806101000a81548173ffffffffffffffffffffffffffffffffffffffff021916908373ffffffffffffffffffffffffffffffffffffffff1602179055508173ffffffffffffffffffffffffffffffffffffffff168173ffffffffffffffffffffffffffffffffffffffff167f8be0079c531659141344cd1fd0a4f28419497f9722a3daafe3b4186f6b6457e060405160405180910390a35050565b600073ffffffffffffffffffffffffffffffffffffffff168273ffffffffffffffffffffffffffffffffffffffff1603610e6e576040517f08c379a0000000000000000000000000000000000000000000000000000000008152600401610e65906118ea565b60405180910390fd5b610e7a60008383610f56565b8060036000828254610e8c9190611328565b9250508190555080600160008473ffffffffffffffffffffffffffffffffffffffff1673ffffffffffffffffffffffffffffffffffffffff168152602001908152602001600020600082825401925050819055508173ffffffffffffffffffffffffffffffffffffffff16600073ffffffffffffffffffffffffffffffffffffffff167fddf252ad1be2c89b69c2b068fc378daa952ba7f163c4a11628f55a4df523b3ef83604051610f3e9190611130565b60405180910390a3610f5260008383610f5b565b5050565b505050565b505050565b600081519050919050565b600082825260208201905092915050565b60005b83811015610f9a578082015181840152602081019050610f7f565b60008484015250505050565b6000601f19601f8301169050919050565b6000610fc282610f60565b610fcc8185610f6b565b9350610fdc818560208601610f7c565b610fe581610fa6565b840191505092915050565b6000602082019050818103600083015261100a8184610fb7565b905092915050565b600080fd5b600073ffffffffffffffffffffffffffffffffffffffff82169050919050565b600061104282611017565b9050919050565b61105281611037565b811461105d57600080fd5b50565b60008135905061106f81611049565b92915050565b6000819050919050565b61108881611075565b811461109357600080fd5b50565b6000813590506110a58161107f565b92915050565b600080604083850312156110c2576110c1611012565b5b60006110d085828601611060565b92505060206110e185828601611096565b9150509250929050565b60008115159050919050565b611100816110eb565b82525050565b600060208201905061111b60008301846110f7565b92915050565b61112a81611075565b82525050565b60006020820190506111456000830184611121565b92915050565b60008060006060848603121561116457611163611012565b5b600061117286828701611060565b935050602061118386828701611060565b925050604061119486828701611096565b9150509250925092565b600060ff82169050919050565b6111b48161119e565b82525050565b60006020820190506111cf60008301846111ab565b92915050565b6000602082840312156111eb576111ea611012565b5b60006111f984828501611060565b91505092915050565b61120b81611037565b82525050565b60006020820190506112266000830184611202565b92915050565b60006020828403121561124257611241611012565b5b600061125084828501611096565b91505092915050565b600080604083850312156112705761126f611012565b5b600061127e85828601611060565b925050602061128f85828601611060565b9150509250929050565b7f4e487b7100000000000000000000000000000000000000000000000000000000600052602260045260246000fd5b600060028204905060018216806112e057607f821691505b6020821081036112f3576112f2611299565b5b50919050565b7f4e487b7100000000000000000000000000000000000000000000000000000000600052601160045260246000fd5b600061133382611075565b915061133e83611075565b9250828201905080821115611356576113556112f9565b5b92915050565b7f4d696e74696e672069732064697361626c656400000000000000000000000000600082015250565b6000611392601383610f6b565b915061139d8261135c565b602082019050919050565b600060208201905081810360008301526113c181611385565b9050919050565b7f45524332303a2064656372656173656420616c6c6f77616e63652062656c6f7760008201527f207a65726f000000000000000000000000000000000000000000000000000000602082015250565b6000611424602583610f6b565b915061142f826113c8565b604082019050919050565b6000602082019050818103600083015261145381611417565b9050919050565b7f4f776e61626c653a206e6577206f776e657220697320746865207a65726f206160008201527f6464726573730000000000000000000000000000000000000000000000000000602082015250565b60006114b6602683610f6b565b91506114c18261145a565b604082019050919050565b600060208201905081810360008301526114e5816114a9565b9050919050565b7f45524332303a20617070726f76652066726f6d20746865207a65726f2061646460008201527f7265737300000000000000000000000000000000000000000000000000000000602082015250565b6000611548602483610f6b565b9150611553826114ec565b604082019050919050565b600060208201905081810360008301526115778161153b565b9050919050565b7f45524332303a20617070726f766520746f20746865207a65726f20616464726560008201527f7373000000000000000000000000000000000000000000000000000000000000602082015250565b60006115da602283610f6b565b91506115e58261157e565b604082019050919050565b60006020820190508181036000830152611609816115cd565b9050919050565b7f45524332303a20696e73756666696369656e7420616c6c6f77616e6365000000600082015250565b6000611646601d83610f6b565b915061165182611610565b602082019050919050565b6000602082019050818103600083015261167581611639565b9050919050565b7f45524332303a207472616e736665722066726f6d20746865207a65726f20616460008201527f6472657373000000000000000000000000000000000000000000000000000000602082015250565b60006116d8602583610f6b565b91506116e38261167c565b604082019050919050565b60006020820190508181036000830152611707816116cb565b9050919050565b7f45524332303a207472616e7366657220746f20746865207a65726f206164647260008201527f6573730000000000000000000000000000000000000000000000000000000000602082015250565b600061176a602383610f6b565b91506117758261170e565b604082019050919050565b600060208201905081810360008301526117998161175d565b9050919050565b7f45524332303a207472616e7366657220616d6f756e742065786365656473206260008201527f616c616e63650000000000000000000000000000000000000000000000000000602082015250565b60006117fc602683610f6b565b9150611807826117a0565b604082019050919050565b6000602082019050818103600083015261182b816117ef565b9050919050565b7f4f776e61626c653a2063616c6c6572206973206e6f7420746865206f776e6572600082015250565b6000611868602083610f6b565b915061187382611832565b602082019050919050565b600060208201905081810360008301526118978161185b565b9050919050565b7f45524332303a206d696e7420746f20746865207a65726f206164647265737300600082015250565b60006118d4601f83610f6b565b91506118df8261189e565b602082019050919050565b60006020820190508181036000830152611903816118c7565b905091905056fea26469706673582212200ace593d42b4c89b59adb06c8ac4730f6f7d3f5141ded70764f292f5677fbea664736f6c63430008110033",
  "linkReferences": {},
  "deployedLinkReferences": {}
}